{
  "contractName": "BaseContract",
  "abi": [
    {
      "inputs": [
        {
          "internalType": "uint256",
          "name": "amount",
          "type": "uint256"
        }
      ],
      "payable": false,
      "stateMutability": "nonpayable",
      "type": "constructor"
    },
    {
      "constant": true,
      "inputs": [],
      "name": "value",
      "outputs": [
        {
          "internalType": "uint256",
          "name": "",
          "type": "uint256"
        }
      ],
      "payable": false,
      "stateMutability": "view",
      "type": "function"
    },
    {
      "constant": false,
      "inputs": [
        {
          "internalType": "uint256",
          "name": "amount",
          "type": "uint256"
        }
      ],
      "name": "deposit",
      "outputs": [],
      "payable": false,
      "stateMutability": "nonpayable",
      "type": "function"
    },
    {
      "constant": false,
      "inputs": [
        {
          "internalType": "uint256",
          "name": "amount",
          "type": "uint256"
        }
      ],
      "name": "withdraw",
      "outputs": [],
      "payable": false,
      "stateMutability": "nonpayable",
      "type": "function"
    }
  ],
  "bytecode": "0x608060405234801561001057600080fd5b5060405161016d38038061016d8339818101604052602081101561003357600080fd5b810190808051906020019092919050505080600081905550506101128061005b6000396000f3fe6080604052348015600f57600080fd5b5060043610603c5760003560e01c80632e1a7d4d1460415780633fa4f24514606c578063b6b55f25146088575b600080fd5b606a60048036036020811015605557600080fd5b810190808035906020019092919050505060b3565b005b607260c5565b6040518082815260200191505060405180910390f35b60b160048036036020811015609c57600080fd5b810190808035906020019092919050505060cb565b005b80600080828254039250508190555050565b60005481565b8060008082825401925050819055505056fea265627a7a723158206ddd86bfb9f0a2c6a1c64cc4063e821395936541edabae79e0d24b3a91fa6c8264736f6c634300050c0032",
  "source": "pragma solidity >=0.4.24;\n\nimport \"./MainContract.sol\";\n\n// We have an ContractInterface, that has a function\n// sendmoney...but there is no function body\ninterface ContractInterface {\n    function sendMoney (uint amount, address _address) external returns (bool);\n}\n\n// This is a BaseContract, that has its constructor, and deposit and withdraw functions...\ncontract BaseContract {\n\n    uint public value;\n\n    // Anytime base contract has a constructor, we will need to initialize this using\n    // the derived contracts constructor function\n\n    constructor (uint amount) public {\n        value = amount;\n    }\n\n    function deposit (uint amount) public {\n        value += amount;\n    }\n\n    function withdraw (uint amount) public {\n        value -= amount;\n    }\n}\n\n// This shows multiple inheritance\n\n// This will give an error...since baseContract has a constructor that we need to initialize\n// contract myContract is baseContract, interfaceContract {\n\ncontract InheritanceContract is BaseContract(100), ContractInterface, MainContract(100) {\n\n    string public contractName;\n\n    constructor (string memory _n) public {\n        contractName = _n;\n    }\n    function getValue () public view returns (uint) {\n        return value;\n    }\n\n    // Function that allows you to convert an address into a payable address\n    function _make_payable(address x) internal pure returns (address payable) {\n        return address(uint160(x));\n    }\n\n    // This function has to be implemented, since it is unimplemented in the interfaceContract\n    function sendMoney (uint amount, address _address) public returns (bool) {\n        _make_payable(_address).transfer(amount);\n    }\n}\n",
  "sourcePath": "/app/contracts/InheritanceContract.sol",
  "compiler": {
    "name": "solc",
    "version": "0.5.12+commit.7709ece9.Emscripten.clang"
  },
  "schemaVersion": "3.0.19",
  "updatedAt": "2019-12-10T18:37:14.586Z",
  "devdoc": {
    "methods": {}
  },
  "userdoc": {
    "methods": {}
  }
}