{
  "contractName": "BasicDataType",
  "abi": [
    {
      "constant": true,
      "inputs": [],
      "name": "flag",
      "outputs": [
        {
          "internalType": "bool",
          "name": "",
          "type": "bool"
        }
      ],
      "payable": false,
      "stateMutability": "view",
      "type": "function"
    },
    {
      "constant": true,
      "inputs": [],
      "name": "owner",
      "outputs": [
        {
          "internalType": "address",
          "name": "",
          "type": "address"
        }
      ],
      "payable": false,
      "stateMutability": "view",
      "type": "function"
    },
    {
      "constant": false,
      "inputs": [
        {
          "internalType": "address",
          "name": "addr",
          "type": "address"
        }
      ],
      "name": "test",
      "outputs": [
        {
          "internalType": "uint256",
          "name": "",
          "type": "uint256"
        }
      ],
      "payable": false,
      "stateMutability": "nonpayable",
      "type": "function"
    }
  ],
  "bytecode": "0x608060405260ff6000806101000a81548160ff021916908360ff1602179055506001600060156101000a81548160ff02191690831515021790555034801561004657600080fd5b50610205806100566000396000f3fe608060405234801561001057600080fd5b50600436106100415760003560e01c8063890eba68146100465780638da5cb5b14610068578063bb29998e146100b2575b600080fd5b61004e61010a565b604051808215151515815260200191505060405180910390f35b61007061011d565b604051808273ffffffffffffffffffffffffffffffffffffffff1673ffffffffffffffffffffffffffffffffffffffff16815260200191505060405180910390f35b6100f4600480360360208110156100c857600080fd5b81019080803573ffffffffffffffffffffffffffffffffffffffff169060200190929190505050610143565b6040518082815260200191505060405180910390f35b600060159054906101000a900460ff1681565b600060019054906101000a900473ffffffffffffffffffffffffffffffffffffffff1681565b600081600060016101000a81548173ffffffffffffffffffffffffffffffffffffffff021916908373ffffffffffffffffffffffffffffffffffffffff160217905550600060019054906101000a900473ffffffffffffffffffffffffffffffffffffffff1673ffffffffffffffffffffffffffffffffffffffff1631600181905550600154905091905056fea265627a7a72315820f5e913573a077c01153e0b1d945bef4341ede19ec7d75d941e716591c175192864736f6c634300050c0032",
  "source": "pragma solidity >=0.4.24;\n\ncontract BasicDataType {\n\n    uint8   a = 255;             // 1 bytes unsigned integer\n    address public owner;        // Address types variable, called owner\n    bool  public flag = true;\n    uint    ownerInitialBalance; // uint type variable\n\n    // Function takes in an address, and returns the balance of this address\n    function test (address addr) public returns (uint) {\n        owner = addr;\n        ownerInitialBalance = owner.balance;\n        // if(1){ } will not compile\n        if (1 > 0) {\n            // This will work because expression evaluates to bool\n            // Do something\n        }\n        return ownerInitialBalance;\n    }\n}",
  "sourcePath": "/app/contracts/BasicDataType.sol",
  "compiler": {
    "name": "solc",
    "version": "0.5.12+commit.7709ece9.Emscripten.clang"
  },
  "schemaVersion": "3.0.19",
  "updatedAt": "2019-12-10T18:37:27.220Z",
  "networkType": "ethereum",
  "devdoc": {
    "methods": {}
  },
  "userdoc": {
    "methods": {}
  }
}