{
  "contractName": "EnumsContract",
  "abi": [
    {
      "constant": true,
      "inputs": [
        {
          "internalType": "uint8",
          "name": "arg",
          "type": "uint8"
        }
      ],
      "name": "getNames",
      "outputs": [
        {
          "internalType": "string",
          "name": "",
          "type": "string"
        }
      ],
      "payable": false,
      "stateMutability": "pure",
      "type": "function"
    }
  ],
  "bytecode": "0x608060405234801561001057600080fd5b50610272806100206000396000f3fe608060405234801561001057600080fd5b506004361061002b5760003560e01c8063575e3ab314610030575b600080fd5b61005f6004803603602081101561004657600080fd5b81019080803560ff1690602001909291905050506100da565b6040518080602001828103825283818151815260200191508051906020019080838360005b8381101561009f578082015181840152602081019050610084565b50505050905090810190601f1680156100cc5780820380516001836020036101000a031916815260200191505b509250505060405180910390f35b6060600060038111156100e957fe5b60ff168260ff161415610133576040518060400160405280600381526020017f4a6f6500000000000000000000000000000000000000000000000000000000008152509050610238565b6001600381111561014057fe5b60ff168260ff16141561018a576040518060400160405280600681526020017f4272616e647900000000000000000000000000000000000000000000000000008152509050610238565b6002600381111561019757fe5b60ff168260ff1614156101e1576040518060400160405280600681526020017f526163686e6100000000000000000000000000000000000000000000000000008152509050610238565b6003808111156101ed57fe5b60ff168260ff161415610237576040518060400160405280600781526020017f4a657373696361000000000000000000000000000000000000000000000000008152509050610238565b5b91905056fea265627a7a723158201eeb3770b83d39f33305ba8ac54bde53c0214eed40da6b2498572ff207d7d97f64736f6c634300050c0032",
  "source": "pragma solidity >=0.4.24;\n\ncontract EnumsContract {\n\n    // Create an Enumeration\n    enum names {Joe, Brandy, Rachna, Jessica}\n\n    // get the value at specified index\n    function getNames(uint8 arg) public pure returns (string memory){\n        if(arg == uint8(names.Joe)) return \"Joe\";\n        if(arg == uint8(names.Brandy)) return \"Brandy\";\n        if(arg == uint8(names.Rachna)) return \"Rachna\";\n        if(arg == uint8(names.Jessica)) return \"Jessica\";\n    }\n}",
  "sourcePath": "/app/contracts/EnumsContract.sol",
  "compiler": {
    "name": "solc",
    "version": "0.5.12+commit.7709ece9.Emscripten.clang"
  },
  "schemaVersion": "3.0.19",
  "updatedAt": "2019-12-10T18:37:27.226Z",
  "networkType": "ethereum",
  "devdoc": {
    "methods": {}
  },
  "userdoc": {
    "methods": {}
  }
}