{
  "contractName": "ExceptionsContract",
  "abi": [
    {
      "constant": true,
      "inputs": [],
      "name": "lastCaller",
      "outputs": [
        {
          "internalType": "string",
          "name": "",
          "type": "string"
        }
      ],
      "payable": false,
      "stateMutability": "view",
      "type": "function"
    },
    {
      "constant": false,
      "inputs": [
        {
          "internalType": "string",
          "name": "name",
          "type": "string"
        }
      ],
      "name": "revertBehavior",
      "outputs": [
        {
          "internalType": "bool",
          "name": "",
          "type": "bool"
        }
      ],
      "payable": false,
      "stateMutability": "nonpayable",
      "type": "function"
    }
  ],
  "bytecode": "0x60806040526040518060400160405280600481526020017f6e6f6e65000000000000000000000000000000000000000000000000000000008152506000908051906020019061004f929190610062565b5034801561005c57600080fd5b50610107565b828054600181600116156101000203166002900490600052602060002090601f016020900481019282601f106100a357805160ff19168380011785556100d1565b828001600101855582156100d1579182015b828111156100d05782518255916020019190600101906100b5565b5b5090506100de91906100e2565b5090565b61010491905b808211156101005760008160009055506001016100e8565b5090565b90565b61041a806101166000396000f3fe608060405234801561001057600080fd5b50600436106100365760003560e01c80632113522a1461003b578063d3660c1c146100be575b600080fd5b610043610191565b6040518080602001828103825283818151815260200191508051906020019080838360005b83811015610083578082015181840152602081019050610068565b50505050905090810190601f1680156100b05780820380516001836020036101000a031916815260200191505b509250505060405180910390f35b610177600480360360208110156100d457600080fd5b81019080803590602001906401000000008111156100f157600080fd5b82018360208201111561010357600080fd5b8035906020019184600183028401116401000000008311171561012557600080fd5b91908080601f016020809104026020016040519081016040528093929190818152602001838380828437600081840152601f19601f82011690508083019250505050505050919291929050505061022f565b604051808215151515815260200191505060405180910390f35b60008054600181600116156101000203166002900480601f0160208091040260200160405190810160405280929190818152602001828054600181600116156101000203166002900480156102275780601f106101fc57610100808354040283529160200191610227565b820191906000526020600020905b81548152906001019060200180831161020a57829003601f168201915b505050505081565b60008160009080519060200190610247929190610340565b506000825114156102c0576040517f08c379a00000000000000000000000000000000000000000000000000000000081526004018080602001828103825260208152602001807f546865206c656e677468206f662074686520737472696e67206973207a65726f81525060200191505060405180910390fd5b6000825111610337576040517f08c379a00000000000000000000000000000000000000000000000000000000081526004018080602001828103825260208152602001807f546865206c656e677468206f662074686520737472696e67206973207a65726f81525060200191505060405180910390fd5b60019050919050565b828054600181600116156101000203166002900490600052602060002090601f016020900481019282601f1061038157805160ff19168380011785556103af565b828001600101855582156103af579182015b828111156103ae578251825591602001919060010190610393565b5b5090506103bc91906103c0565b5090565b6103e291905b808211156103de5760008160009055506001016103c6565b5090565b9056fea265627a7a72315820aefcf30c8ea54148f75dd8f811ba79d263140d8fb56c313a2ea234a3d13193d664736f6c634300050c0032",
  "source": "pragma solidity >=0.4.24;\n\ncontract ExceptionsContract {\n\n    // Public variable lastCaller, with a value of none\n    string  public lastCaller = \"none\";\n\n    // Function revertBehavior that takes in a name as an argument,\n    //and sets the lastCaller variable to this argument received\n    function  revertBehavior(string memory name) public returns (bool) {\n        lastCaller = name;\n\n        // Check if length of the string is zero\n        // If the argument received has zero length, it throws an exception...\n        // Once an exception is thrown, the variable lastCaller rolls back to its initial value\n        if (bytes(name).length == 0) {\n            revert(\"The length of the string is zero\");\n        }\n        // This is the same thing...just using require to check the length of the input string.\n        // The code will only be exceuted if the length is greater than 0\n        // The above lines of code may be replaced with this\n        require(bytes(name).length > 0, \"The length of the string is zero\");\n\n        return true;\n    }\n\n}\n\n// So, what is going on is that in the function revertBehavior\n// lastCaller is being changed to the input argument\n// and then an exception is thrown, and the lastCaller reverts back\n// to its orginial value, thus nullifying the effect\n",
  "sourcePath": "/app/contracts/ExceptionsContract.sol",
  "compiler": {
    "name": "solc",
    "version": "0.5.12+commit.7709ece9.Emscripten.clang"
  },
  "schemaVersion": "3.0.19",
  "updatedAt": "2019-12-10T18:37:27.236Z",
  "networkType": "ethereum",
  "devdoc": {
    "methods": {}
  },
  "userdoc": {
    "methods": {}
  }
}