{
  "contractName": "FunctionsContract",
  "abi": [
    {
      "inputs": [
        {
          "internalType": "string",
          "name": "name",
          "type": "string"
        },
        {
          "internalType": "uint8",
          "name": "age",
          "type": "uint8"
        }
      ],
      "payable": false,
      "stateMutability": "nonpayable",
      "type": "constructor"
    },
    {
      "constant": false,
      "inputs": [
        {
          "internalType": "string",
          "name": "name",
          "type": "string"
        },
        {
          "internalType": "uint8",
          "name": "age",
          "type": "uint8"
        }
      ],
      "name": "setOwnerInfo",
      "outputs": [],
      "payable": false,
      "stateMutability": "nonpayable",
      "type": "function"
    },
    {
      "constant": true,
      "inputs": [],
      "name": "getOwnerInfo",
      "outputs": [
        {
          "internalType": "string",
          "name": "name",
          "type": "string"
        },
        {
          "internalType": "uint8",
          "name": "age",
          "type": "uint8"
        }
      ],
      "payable": false,
      "stateMutability": "view",
      "type": "function"
    },
    {
      "constant": true,
      "inputs": [],
      "name": "getOwnerName",
      "outputs": [
        {
          "internalType": "string",
          "name": "",
          "type": "string"
        }
      ],
      "payable": false,
      "stateMutability": "view",
      "type": "function"
    },
    {
      "constant": true,
      "inputs": [],
      "name": "getOwnerAge",
      "outputs": [
        {
          "internalType": "uint8",
          "name": "age",
          "type": "uint8"
        }
      ],
      "payable": false,
      "stateMutability": "view",
      "type": "function"
    }
  ],
  "bytecode": "0x608060405234801561001057600080fd5b506040516106b73803806106b78339818101604052604081101561003357600080fd5b810190808051604051939291908464010000000082111561005357600080fd5b8382019150602082018581111561006957600080fd5b825186600182028301116401000000008211171561008657600080fd5b8083526020830192505050908051906020019080838360005b838110156100ba57808201518184015260208101905061009f565b50505050905090810190601f1680156100e75780820380516001836020036101000a031916815260200191505b50604052602001805190602001909291905050508160009080519060200190610111929190610134565b5080600160006101000a81548160ff021916908360ff16021790555050506101d9565b828054600181600116156101000203166002900490600052602060002090601f016020900481019282601f1061017557805160ff19168380011785556101a3565b828001600101855582156101a3579182015b828111156101a2578251825591602001919060010190610187565b5b5090506101b091906101b4565b5090565b6101d691905b808211156101d25760008160009055506001016101ba565b5090565b90565b6104cf806101e86000396000f3fe608060405234801561001057600080fd5b506004361061004c5760003560e01c8063145ef6e914610051578063badbcfe8146100d4578063d5f7c53b146100f8578063facf8323146101c0575b600080fd5b610059610250565b6040518080602001828103825283818151815260200191508051906020019080838360005b8381101561009957808201518184015260208101905061007e565b50505050905090810190601f1680156100c65780820380516001836020036101000a031916815260200191505b509250505060405180910390f35b6100dc6102f2565b604051808260ff1660ff16815260200191505060405180910390f35b6101be6004803603604081101561010e57600080fd5b810190808035906020019064010000000081111561012b57600080fd5b82018360208201111561013d57600080fd5b8035906020019184600183028401116401000000008311171561015f57600080fd5b91908080601f016020809104026020016040519081016040528093929190818152602001838380828437600081840152601f19601f820116905080830192505050505050509192919290803560ff169060200190929190505050610309565b005b6101c861033f565b60405180806020018360ff1660ff168152602001828103825284818151815260200191508051906020019080838360005b838110156102145780820151818401526020810190506101f9565b50505050905090810190601f1680156102415780820380516001836020036101000a031916815260200191505b50935050505060405180910390f35b606060008054600181600116156101000203166002900480601f0160208091040260200160405190810160405280929190818152602001828054600181600116156101000203166002900480156102e85780601f106102bd576101008083540402835291602001916102e8565b820191906000526020600020905b8154815290600101906020018083116102cb57829003601f168201915b5050505050905090565b6000600160009054906101000a900460ff16905090565b816000908051906020019061031f9291906103f5565b5080600160006101000a81548160ff021916908360ff1602179055505050565b60606000808054600181600116156101000203166002900480601f0160208091040260200160405190810160405280929190818152602001828054600181600116156101000203166002900480156103d85780601f106103ad576101008083540402835291602001916103d8565b820191906000526020600020905b8154815290600101906020018083116103bb57829003601f168201915b50505050509150600160009054906101000a900460ff1690509091565b828054600181600116156101000203166002900490600052602060002090601f016020900481019282601f1061043657805160ff1916838001178555610464565b82800160010185558215610464579182015b82811115610463578251825591602001919060010190610448565b5b5090506104719190610475565b5090565b61049791905b8082111561049357600081600090555060010161047b565b5090565b9056fea265627a7a72315820ea4cfe2db9f71dd8e905dc69423e46064fafb4788587f33fc257239fb5caec0664736f6c634300050c0032",
  "source": "pragma solidity >=0.4.24;\n\ncontract FunctionsContract {\n\n    string ownerName;\n    uint8  ownerAge;\n\n    // Constructor\n    constructor (string memory name, uint8 age) public {\n        ownerName = name;\n        ownerAge = age;\n    }\n\n    // We are changing the owner name and age\n    function setOwnerInfo(string memory name, uint8 age) public {\n        ownerName = name;\n        ownerAge = age;\n    }\n\n    function secretFunction() private pure {\n        // Not available outside this contract\n    }\n\n    // Get owner name and age\n    function  getOwnerInfo() public view returns (string memory name, uint8 age){\n        name = ownerName;\n        age = ownerAge;\n    }\n\n    // Get the name\n    // 2 ways to return values from a function\n    function getOwnerName() public view returns (string memory) {\n        return ownerName;\n    }\n\n    // Get the age\n    function getOwnerAge() public view returns (uint8 age){\n        age = ownerAge;\n    }\n}\n",
  "sourcePath": "/app/contracts/FunctionsContract.sol",
  "compiler": {
    "name": "solc",
    "version": "0.5.12+commit.7709ece9.Emscripten.clang"
  },
  "schemaVersion": "3.0.19",
  "updatedAt": "2019-12-10T18:37:27.230Z",
  "networkType": "ethereum",
  "devdoc": {
    "methods": {}
  },
  "userdoc": {
    "methods": {}
  }
}