{
  "contractName": "InheritanceContract",
  "abi": [
    {
      "inputs": [
        {
          "internalType": "string",
          "name": "_n",
          "type": "string"
        }
      ],
      "payable": false,
      "stateMutability": "nonpayable",
      "type": "constructor"
    },
    {
      "constant": true,
      "inputs": [],
      "name": "contractName",
      "outputs": [
        {
          "internalType": "string",
          "name": "",
          "type": "string"
        }
      ],
      "payable": false,
      "stateMutability": "view",
      "type": "function"
    },
    {
      "constant": false,
      "inputs": [
        {
          "internalType": "uint256",
          "name": "amount",
          "type": "uint256"
        }
      ],
      "name": "deposit",
      "outputs": [],
      "payable": false,
      "stateMutability": "nonpayable",
      "type": "function"
    },
    {
      "constant": true,
      "inputs": [],
      "name": "value",
      "outputs": [
        {
          "internalType": "uint256",
          "name": "",
          "type": "uint256"
        }
      ],
      "payable": false,
      "stateMutability": "view",
      "type": "function"
    },
    {
      "constant": false,
      "inputs": [
        {
          "internalType": "uint256",
          "name": "amount",
          "type": "uint256"
        }
      ],
      "name": "withdraw",
      "outputs": [],
      "payable": false,
      "stateMutability": "nonpayable",
      "type": "function"
    },
    {
      "constant": true,
      "inputs": [],
      "name": "getValue",
      "outputs": [
        {
          "internalType": "uint256",
          "name": "",
          "type": "uint256"
        }
      ],
      "payable": false,
      "stateMutability": "view",
      "type": "function"
    },
    {
      "constant": false,
      "inputs": [
        {
          "internalType": "uint256",
          "name": "amount",
          "type": "uint256"
        },
        {
          "internalType": "address",
          "name": "_address",
          "type": "address"
        }
      ],
      "name": "sendMoney",
      "outputs": [
        {
          "internalType": "bool",
          "name": "",
          "type": "bool"
        }
      ],
      "payable": false,
      "stateMutability": "nonpayable",
      "type": "function"
    }
  ],
  "bytecode": "0x608060405234801561001057600080fd5b506040516105243803806105248339818101604052602081101561003357600080fd5b810190808051604051939291908464010000000082111561005357600080fd5b8382019150602082018581111561006957600080fd5b825186600182028301116401000000008211171561008657600080fd5b8083526020830192505050908051906020019080838360005b838110156100ba57808201518184015260208101905061009f565b50505050905090810190601f1680156100e75780820380516001836020036101000a031916815260200191505b5060405250505060648080600081905550508060018190555050806002908051906020019061011792919061011e565b50506101c3565b828054600181600116156101000203166002900490600052602060002090601f016020900481019282601f1061015f57805160ff191683800117855561018d565b8280016001018555821561018d579182015b8281111561018c578251825591602001919060010190610171565b5b50905061019a919061019e565b5090565b6101c091905b808211156101bc5760008160009055506001016101a4565b5090565b90565b610352806101d26000396000f3fe608060405234801561001057600080fd5b50600436106100625760003560e01c8063062a75441461006757806320965255146100cd5780632e1a7d4d146100eb5780633fa4f2451461011957806375d0c0dc14610137578063b6b55f25146101ba575b600080fd5b6100b36004803603604081101561007d57600080fd5b8101908080359060200190929190803573ffffffffffffffffffffffffffffffffffffffff1690602001909291905050506101e8565b604051808215151515815260200191505060405180910390f35b6100d561023f565b6040518082815260200191505060405180910390f35b6101176004803603602081101561010157600080fd5b8101908080359060200190929190505050610249565b005b61012161025c565b6040518082815260200191505060405180910390f35b61013f610262565b6040518080602001828103825283818151815260200191508051906020019080838360005b8381101561017f578082015181840152602081019050610164565b50505050905090810190601f1680156101ac5780820380516001836020036101000a031916815260200191505b509250505060405180910390f35b6101e6600480360360208110156101d057600080fd5b8101908080359060200190929190505050610300565b005b60006101f382610313565b73ffffffffffffffffffffffffffffffffffffffff166108fc849081150290604051600060405180830381858888f19350505050158015610238573d6000803e3d6000fd5b5092915050565b6000600154905090565b8060016000828254039250508190555050565b60005481565b60028054600181600116156101000203166002900480601f0160208091040260200160405190810160405280929190818152602001828054600181600116156101000203166002900480156102f85780601f106102cd576101008083540402835291602001916102f8565b820191906000526020600020905b8154815290600101906020018083116102db57829003601f168201915b505050505081565b8060016000828254019250508190555050565b600081905091905056fea265627a7a72315820d404e6dc41a3a51bb9ae7d8404f268d0f13954499c8c41042da183486e4ad4d264736f6c634300050c0032",
  "source": "pragma solidity >=0.4.24;\n\nimport \"./MainContract.sol\";\n\n// We have an ContractInterface, that has a function\n// sendmoney...but there is no function body\ninterface ContractInterface {\n    function sendMoney (uint amount, address _address) external returns (bool);\n}\n\n// This is a BaseContract, that has its constructor, and deposit and withdraw functions...\ncontract BaseContract {\n\n    uint public value;\n\n    // Anytime base contract has a constructor, we will need to initialize this using\n    // the derived contracts constructor function\n\n    constructor (uint amount) public {\n        value = amount;\n    }\n\n    function deposit (uint amount) public {\n        value += amount;\n    }\n\n    function withdraw (uint amount) public {\n        value -= amount;\n    }\n}\n\n// This shows multiple inheritance\n\n// This will give an error...since baseContract has a constructor that we need to initialize\n// contract myContract is baseContract, interfaceContract {\n\ncontract InheritanceContract is BaseContract(100), ContractInterface, MainContract(100) {\n\n    string public contractName;\n\n    constructor (string memory _n) public {\n        contractName = _n;\n    }\n    function getValue () public view returns (uint) {\n        return value;\n    }\n\n    // Function that allows you to convert an address into a payable address\n    function _make_payable(address x) internal pure returns (address payable) {\n        return address(uint160(x));\n    }\n\n    // This function has to be implemented, since it is unimplemented in the interfaceContract\n    function sendMoney (uint amount, address _address) public returns (bool) {\n        _make_payable(_address).transfer(amount);\n    }\n}\n",
  "sourcePath": "/app/contracts/InheritanceContract.sol",
  "compiler": {
    "name": "solc",
    "version": "0.5.12+commit.7709ece9.Emscripten.clang"
  },
  "schemaVersion": "3.0.19",
  "updatedAt": "2019-12-10T18:37:27.238Z",
  "networkType": "ethereum",
  "devdoc": {
    "methods": {}
  },
  "userdoc": {
    "methods": {}
  }
}