{
  "contractName": "MainContract",
  "abi": [
    {
      "inputs": [
        {
          "internalType": "uint256",
          "name": "amount",
          "type": "uint256"
        }
      ],
      "payable": false,
      "stateMutability": "nonpayable",
      "type": "constructor"
    },
    {
      "constant": false,
      "inputs": [
        {
          "internalType": "uint256",
          "name": "amount",
          "type": "uint256"
        }
      ],
      "name": "deposit",
      "outputs": [],
      "payable": false,
      "stateMutability": "nonpayable",
      "type": "function"
    },
    {
      "constant": false,
      "inputs": [
        {
          "internalType": "uint256",
          "name": "amount",
          "type": "uint256"
        }
      ],
      "name": "withdraw",
      "outputs": [],
      "payable": false,
      "stateMutability": "nonpayable",
      "type": "function"
    }
  ],
  "bytecode": "0x608060405234801561001057600080fd5b506040516101403803806101408339818101604052602081101561003357600080fd5b8101908080519060200190929190505050806000819055505060e68061005a6000396000f3fe6080604052348015600f57600080fd5b506004361060325760003560e01c80632e1a7d4d146037578063b6b55f25146062575b600080fd5b606060048036036020811015604b57600080fd5b8101908080359060200190929190505050608d565b005b608b60048036036020811015607657600080fd5b8101908080359060200190929190505050609f565b005b80600080828254039250508190555050565b8060008082825401925050819055505056fea265627a7a72315820deb16ecd3a36b429beb51b7da8b9a3bcdef33f11d34b26b2ff1432edcada313a64736f6c634300050c0032",
  "source": "pragma solidity >=0.4.24;\n\ncontract MainContract {\n\n    uint internal value;\n\n    constructor (uint amount) public {\n        value = amount;\n    }\n\n    function deposit (uint amount) public {\n        value += amount;\n    }\n\n    function withdraw (uint amount) public {\n        value -= amount;\n    }\n}\n",
  "sourcePath": "/app/contracts/MainContract.sol",
  "compiler": {
    "name": "solc",
    "version": "0.5.12+commit.7709ece9.Emscripten.clang"
  },
  "schemaVersion": "3.0.19",
  "updatedAt": "2019-12-10T18:37:27.237Z",
  "networkType": "ethereum",
  "devdoc": {
    "methods": {}
  },
  "userdoc": {
    "methods": {}
  }
}