{
  "contractName": "StructsContract",
  "abi": [
    {
      "constant": true,
      "inputs": [
        {
          "internalType": "bytes32",
          "name": "name",
          "type": "bytes32"
        }
      ],
      "name": "getName",
      "outputs": [
        {
          "internalType": "bytes32",
          "name": "",
          "type": "bytes32"
        },
        {
          "internalType": "uint8",
          "name": "",
          "type": "uint8"
        },
        {
          "internalType": "uint16",
          "name": "",
          "type": "uint16"
        }
      ],
      "payable": false,
      "stateMutability": "view",
      "type": "function"
    },
    {
      "constant": false,
      "inputs": [
        {
          "internalType": "bytes32",
          "name": "_lastName",
          "type": "bytes32"
        },
        {
          "internalType": "uint8",
          "name": "_value",
          "type": "uint8"
        },
        {
          "internalType": "uint16",
          "name": "_age",
          "type": "uint16"
        }
      ],
      "name": "addName",
      "outputs": [
        {
          "internalType": "bool",
          "name": "",
          "type": "bool"
        }
      ],
      "payable": false,
      "stateMutability": "nonpayable",
      "type": "function"
    }
  ],
  "bytecode": "0x608060405234801561001057600080fd5b50610306806100206000396000f3fe608060405234801561001057600080fd5b50600436106100365760003560e01c806354b8d5e31461003b5780636af75d2a14610099575b600080fd5b6100676004803603602081101561005157600080fd5b81019080803590602001909291905050506100fa565b604051808481526020018360ff1660ff1681526020018261ffff1661ffff168152602001935050505060405180910390f35b6100e0600480360360608110156100af57600080fd5b8101908080359060200190929190803560ff169060200190929190803561ffff1690602001909291905050506101e1565b604051808215151515815260200191505060405180910390f35b600080600080600090505b6000805490508160ff1610156101d85760008160ff168154811061012557fe5b9060005260206000209060020201600001548514156101cb5760008160ff168154811061014e57fe5b90600052602060002090600202016000015460008260ff168154811061017057fe5b906000526020600020906002020160010160009054906101000a900460ff1660008360ff168154811061019f57fe5b906000526020600020906002020160010160019054906101000a900461ffff16935093509350506101da565b8080600101915050610105565b505b9193909250565b60006101eb6102a6565b8481600001818152505083816020019060ff16908160ff168152505082816040019061ffff16908161ffff1681525050600081908060018154018082558091505090600182039060005260206000209060020201600090919290919091506000820151816000015560208201518160010160006101000a81548160ff021916908360ff16021790555060408201518160010160016101000a81548161ffff021916908361ffff16021790555050505060019150509392505050565b604051806060016040528060008019168152602001600060ff168152602001600061ffff168152509056fea265627a7a7231582004515ffe8f1deedfb8f8d54b5d354850ae0af18fec1835bd32b393f2322374c664736f6c634300050c0032",
  "source": "pragma solidity >=0.4.24;\n\ncontract StructsContract {\n\n    // Family\n    struct Family {\n        bytes32 lastName;\n        uint8 houseNo;\n        uint16 age;\n    }\n\n    // Creating an array of type family..which is a struct\n    Family[] myFamily;\n\n    // Getting a lastName, and returning complete\n    // family details\n    // We cannot compare 2 strings in solidity...\n    function getName(bytes32 name) public view returns (bytes32, uint8, uint16) {\n        // Search the array\n        for(uint8 i = 0; i < myFamily.length; i++){\n            if(name == myFamily[i].lastName) {\n                return (myFamily[i].lastName,uint8(myFamily[i].houseNo), myFamily[i].age);\n            }\n        }\n    }\n\n    // Structs Cannot be passed as argument so we are passing all elements/attributes of struct as args\n    function addName(bytes32 _lastName, uint8 _value, uint16 _age) public returns (bool) {\n        // Declare the struct variable in memory...\n        Family memory newFamily;\n        //  use the . notation to access members of a struct\n        newFamily.lastName = _lastName;\n        newFamily.houseNo = _value;\n        newFamily.age = _age;\n        // Push the newFamily struct...into our myFamily array\n        myFamily.push(newFamily);\n        return true;\n    }\n}",
  "sourcePath": "/app/contracts/StructsContract.sol",
  "compiler": {
    "name": "solc",
    "version": "0.5.12+commit.7709ece9.Emscripten.clang"
  },
  "schemaVersion": "3.0.19",
  "updatedAt": "2019-12-10T18:37:27.227Z",
  "networkType": "ethereum",
  "devdoc": {
    "methods": {}
  },
  "userdoc": {
    "methods": {}
  }
}