{
  "contractName": "TypesConversion",
  "abi": [
    {
      "constant": false,
      "inputs": [],
      "name": "conversion",
      "outputs": [],
      "payable": false,
      "stateMutability": "nonpayable",
      "type": "function"
    }
  ],
  "bytecode": "0x608060405260ff6000806101000a81548160ff021916908360ff160217905550348015602a57600080fd5b50609d806100396000396000f3fe6080604052348015600f57600080fd5b506004361060285760003560e01c80639311ca6914602d575b600080fd5b60336035565b005b60008060009054906101000a900460ff1660ff169050806000806101000a81548160ff021916908360ff1602179055505056fea265627a7a72315820db79cd4df09d6547c92b2bca26159afd92e333ec98ce5d50043ab7705f5374fe64736f6c634300050c0032",
  "source": "pragma solidity >=0.4.24;\n\ncontract TypesConversion {\n    uint8 a = 255;              // a is 1 bytes unsigned integer\n    uint ownerInitialBalance;   // uint256\n\n    function conversion ( ) public {\n        int  b;        // b is 32 bytes signed integer...256 bits\n        b = a;         // Compilation successful, since a 8bytes type can easily fit in a 32bytes type\n        // a = b;      // Fails compilation as the maximum value of int256 cannot be accomodated in uint8\n        a = uint8(b);  // Explicit type coversion...converting a 32bytes to 1bytes\n    }\n}\n",
  "sourcePath": "/app/contracts/TypesConversion.sol",
  "compiler": {
    "name": "solc",
    "version": "0.5.12+commit.7709ece9.Emscripten.clang"
  },
  "schemaVersion": "3.0.19",
  "updatedAt": "2019-12-10T18:37:27.221Z",
  "networkType": "ethereum",
  "devdoc": {
    "methods": {}
  },
  "userdoc": {
    "methods": {}
  }
}