{
  "contractName": "FlightSuretyApp",
  "abi": [
    {
      "constant": true,
      "inputs": [],
      "name": "REGISTRATION_FEE",
      "outputs": [
        {
          "name": "",
          "type": "uint256"
        }
      ],
      "payable": false,
      "stateMutability": "view",
      "type": "function"
    },
    {
      "constant": true,
      "inputs": [],
      "name": "data",
      "outputs": [
        {
          "name": "",
          "type": "string"
        }
      ],
      "payable": false,
      "stateMutability": "view",
      "type": "function"
    },
    {
      "constant": true,
      "inputs": [],
      "name": "MAX_INSURANCE_AMOUNT",
      "outputs": [
        {
          "name": "",
          "type": "uint256"
        }
      ],
      "payable": false,
      "stateMutability": "view",
      "type": "function"
    },
    {
      "constant": true,
      "inputs": [],
      "name": "INSURANCE_DIVIDER",
      "outputs": [
        {
          "name": "",
          "type": "uint256"
        }
      ],
      "payable": false,
      "stateMutability": "view",
      "type": "function"
    },
    {
      "inputs": [
        {
          "name": "dataContractAddress",
          "type": "address"
        }
      ],
      "payable": false,
      "stateMutability": "nonpayable",
      "type": "constructor"
    },
    {
      "anonymous": false,
      "inputs": [
        {
          "indexed": false,
          "name": "airline",
          "type": "address"
        }
      ],
      "name": "AirlineApplied",
      "type": "event"
    },
    {
      "anonymous": false,
      "inputs": [
        {
          "indexed": false,
          "name": "airline",
          "type": "address"
        }
      ],
      "name": "AirlineRegistered",
      "type": "event"
    },
    {
      "anonymous": false,
      "inputs": [
        {
          "indexed": false,
          "name": "airline",
          "type": "address"
        }
      ],
      "name": "AirlinePaid",
      "type": "event"
    },
    {
      "anonymous": false,
      "inputs": [
        {
          "indexed": false,
          "name": "airline",
          "type": "address"
        },
        {
          "indexed": false,
          "name": "flight",
          "type": "string"
        },
        {
          "indexed": false,
          "name": "statusCode",
          "type": "uint8"
        }
      ],
      "name": "FlightStatusProcessed",
      "type": "event"
    },
    {
      "anonymous": false,
      "inputs": [
        {
          "indexed": false,
          "name": "passenger",
          "type": "address"
        },
        {
          "indexed": false,
          "name": "flightKey",
          "type": "bytes32"
        }
      ],
      "name": "PassengerInsuranceBought",
      "type": "event"
    },
    {
      "anonymous": false,
      "inputs": [
        {
          "indexed": false,
          "name": "airline",
          "type": "address"
        },
        {
          "indexed": false,
          "name": "flight",
          "type": "string"
        },
        {
          "indexed": false,
          "name": "timestamp",
          "type": "uint256"
        },
        {
          "indexed": false,
          "name": "status",
          "type": "uint8"
        }
      ],
      "name": "FlightStatusInfo",
      "type": "event"
    },
    {
      "anonymous": false,
      "inputs": [
        {
          "indexed": false,
          "name": "airline",
          "type": "address"
        },
        {
          "indexed": false,
          "name": "flight",
          "type": "string"
        },
        {
          "indexed": false,
          "name": "timestamp",
          "type": "uint256"
        },
        {
          "indexed": false,
          "name": "status",
          "type": "uint8"
        }
      ],
      "name": "OracleReport",
      "type": "event"
    },
    {
      "anonymous": false,
      "inputs": [
        {
          "indexed": false,
          "name": "index",
          "type": "uint8"
        },
        {
          "indexed": false,
          "name": "airline",
          "type": "address"
        },
        {
          "indexed": false,
          "name": "flight",
          "type": "string"
        },
        {
          "indexed": false,
          "name": "timestamp",
          "type": "uint256"
        }
      ],
      "name": "OracleRequest",
      "type": "event"
    },
    {
      "anonymous": false,
      "inputs": [
        {
          "indexed": false,
          "name": "idx",
          "type": "uint8[3]"
        },
        {
          "indexed": false,
          "name": "_message",
          "type": "string"
        }
      ],
      "name": "OracleIsRegistered",
      "type": "event"
    },
    {
      "anonymous": false,
      "inputs": [
        {
          "indexed": false,
          "name": "status",
          "type": "bool"
        },
        {
          "indexed": false,
          "name": "_message",
          "type": "string"
        }
      ],
      "name": "ContractOperatingStatus",
      "type": "event"
    },
    {
      "anonymous": false,
      "inputs": [
        {
          "indexed": false,
          "name": "data",
          "type": "string"
        },
        {
          "indexed": false,
          "name": "_message",
          "type": "string"
        }
      ],
      "name": "DataSaved",
      "type": "event"
    },
    {
      "constant": true,
      "inputs": [],
      "name": "isContractOwner",
      "outputs": [
        {
          "name": "",
          "type": "bool"
        }
      ],
      "payable": false,
      "stateMutability": "view",
      "type": "function"
    },
    {
      "constant": true,
      "inputs": [],
      "name": "isOperational",
      "outputs": [
        {
          "name": "",
          "type": "bool"
        }
      ],
      "payable": false,
      "stateMutability": "view",
      "type": "function"
    },
    {
      "constant": false,
      "inputs": [
        {
          "name": "mode",
          "type": "bool"
        }
      ],
      "name": "setOperatingStatus",
      "outputs": [],
      "payable": false,
      "stateMutability": "nonpayable",
      "type": "function"
    },
    {
      "constant": true,
      "inputs": [],
      "name": "refreshAccount",
      "outputs": [
        {
          "name": "",
          "type": "bool"
        }
      ],
      "payable": false,
      "stateMutability": "view",
      "type": "function"
    },
    {
      "constant": true,
      "inputs": [],
      "name": "getData",
      "outputs": [
        {
          "name": "",
          "type": "string"
        }
      ],
      "payable": false,
      "stateMutability": "view",
      "type": "function"
    },
    {
      "constant": false,
      "inputs": [
        {
          "name": "_data",
          "type": "string"
        }
      ],
      "name": "setData",
      "outputs": [],
      "payable": false,
      "stateMutability": "nonpayable",
      "type": "function"
    },
    {
      "constant": false,
      "inputs": [
        {
          "name": "airlineName",
          "type": "string"
        }
      ],
      "name": "registerAirline",
      "outputs": [],
      "payable": false,
      "stateMutability": "nonpayable",
      "type": "function"
    },
    {
      "constant": false,
      "inputs": [
        {
          "name": "airline",
          "type": "address"
        }
      ],
      "name": "approveAirlineRegistration",
      "outputs": [],
      "payable": false,
      "stateMutability": "nonpayable",
      "type": "function"
    },
    {
      "constant": false,
      "inputs": [],
      "name": "payAirlineDues",
      "outputs": [],
      "payable": true,
      "stateMutability": "payable",
      "type": "function"
    },
    {
      "constant": false,
      "inputs": [
        {
          "name": "airline",
          "type": "address"
        },
        {
          "name": "flight",
          "type": "string"
        },
        {
          "name": "timestamp",
          "type": "uint256"
        }
      ],
      "name": "purchaseInsurance",
      "outputs": [],
      "payable": true,
      "stateMutability": "payable",
      "type": "function"
    },
    {
      "constant": true,
      "inputs": [
        {
          "name": "flight",
          "type": "string"
        }
      ],
      "name": "getInsurance",
      "outputs": [
        {
          "name": "amount",
          "type": "uint256"
        },
        {
          "name": "payoutAmount",
          "type": "uint256"
        },
        {
          "name": "state",
          "type": "uint256"
        }
      ],
      "payable": false,
      "stateMutability": "view",
      "type": "function"
    },
    {
      "constant": false,
      "inputs": [
        {
          "name": "airline",
          "type": "address"
        },
        {
          "name": "flight",
          "type": "string"
        },
        {
          "name": "timestamp",
          "type": "uint256"
        }
      ],
      "name": "claimInsurance",
      "outputs": [],
      "payable": false,
      "stateMutability": "nonpayable",
      "type": "function"
    },
    {
      "constant": true,
      "inputs": [],
      "name": "getBalance",
      "outputs": [
        {
          "name": "balance",
          "type": "uint256"
        }
      ],
      "payable": false,
      "stateMutability": "view",
      "type": "function"
    },
    {
      "constant": false,
      "inputs": [],
      "name": "withdrawBalance",
      "outputs": [],
      "payable": false,
      "stateMutability": "nonpayable",
      "type": "function"
    },
    {
      "constant": true,
      "inputs": [],
      "name": "getFlightsCount",
      "outputs": [
        {
          "name": "count",
          "type": "uint256"
        }
      ],
      "payable": false,
      "stateMutability": "view",
      "type": "function"
    },
    {
      "constant": true,
      "inputs": [
        {
          "name": "index",
          "type": "uint256"
        }
      ],
      "name": "getFlight",
      "outputs": [
        {
          "name": "airline",
          "type": "address"
        },
        {
          "name": "flight",
          "type": "string"
        },
        {
          "name": "timestamp",
          "type": "uint256"
        },
        {
          "name": "statusCode",
          "type": "uint8"
        }
      ],
      "payable": false,
      "stateMutability": "view",
      "type": "function"
    },
    {
      "constant": false,
      "inputs": [
        {
          "name": "status",
          "type": "uint8"
        },
        {
          "name": "flight",
          "type": "string"
        }
      ],
      "name": "registerFlight",
      "outputs": [],
      "payable": false,
      "stateMutability": "nonpayable",
      "type": "function"
    },
    {
      "constant": false,
      "inputs": [
        {
          "name": "airline",
          "type": "address"
        },
        {
          "name": "flight",
          "type": "string"
        },
        {
          "name": "timestamp",
          "type": "uint256"
        }
      ],
      "name": "fetchFlightStatus",
      "outputs": [],
      "payable": false,
      "stateMutability": "nonpayable",
      "type": "function"
    },
    {
      "constant": false,
      "inputs": [],
      "name": "registerOracle",
      "outputs": [],
      "payable": true,
      "stateMutability": "payable",
      "type": "function"
    },
    {
      "constant": true,
      "inputs": [],
      "name": "getMyIndexes",
      "outputs": [
        {
          "name": "",
          "type": "uint8[3]"
        }
      ],
      "payable": false,
      "stateMutability": "view",
      "type": "function"
    },
    {
      "constant": false,
      "inputs": [
        {
          "name": "index",
          "type": "uint8"
        },
        {
          "name": "airline",
          "type": "address"
        },
        {
          "name": "flight",
          "type": "string"
        },
        {
          "name": "timestamp",
          "type": "uint256"
        },
        {
          "name": "statusCode",
          "type": "uint8"
        }
      ],
      "name": "submitOracleResponse",
      "outputs": [],
      "payable": false,
      "stateMutability": "nonpayable",
      "type": "function"
    }
  ],
  "bytecode": "0x60806040526001600260146101000a81548160ff0219169083151502179055506000600460006101000a81548160ff021916908360ff1602179055503480156200004857600080fd5b50604051602080620043c0833981018060405260208110156200006a57600080fd5b810190808051906020019092919050505033600260006101000a81548173ffffffffffffffffffffffffffffffffffffffff021916908373ffffffffffffffffffffffffffffffffffffffff16021790555080600160006101000a81548173ffffffffffffffffffffffffffffffffffffffff021916908373ffffffffffffffffffffffffffffffffffffffff160217905550600160009054906101000a900473ffffffffffffffffffffffffffffffffffffffff166000806101000a81548173ffffffffffffffffffffffffffffffffffffffff021916908373ffffffffffffffffffffffffffffffffffffffff1602179055506040805190810160405280600981526020017f536565642044617461000000000000000000000000000000000000000000000081525060059080519060200190620001ac9291906200082e565b50600062000222600260009054906101000a900473ffffffffffffffffffffffffffffffffffffffff166040805190810160405280600781526020017f464c4947485431000000000000000000000000000000000000000000000000008152504262000762640100000000026401000000009004565b9050608060405190810160405280600060ff168152602001428152602001600260009054906101000a900473ffffffffffffffffffffffffffffffffffffffff1673ffffffffffffffffffffffffffffffffffffffff1681526020016040805190810160405280600781526020017f464c4947485431000000000000000000000000000000000000000000000000008152508152506007600083815260200190815260200160002060008201518160000160006101000a81548160ff021916908360ff1602179055506020820151816001015560408201518160020160006101000a81548173ffffffffffffffffffffffffffffffffffffffff021916908373ffffffffffffffffffffffffffffffffffffffff16021790555060608201518160030190805190602001906200035a929190620008b5565b509050506003819080600181540180825580915050906001820390600052602060002001600090919290919091505550600062000404600260009054906101000a900473ffffffffffffffffffffffffffffffffffffffff166040805190810160405280600781526020017f464c49474854320000000000000000000000000000000000000000000000000081525062015180420162000762640100000000026401000000009004565b9050608060405190810160405280600060ff1681526020016201518042018152602001600260009054906101000a900473ffffffffffffffffffffffffffffffffffffffff1673ffffffffffffffffffffffffffffffffffffffff1681526020016040805190810160405280600781526020017f464c4947485432000000000000000000000000000000000000000000000000008152508152506007600083815260200190815260200160002060008201518160000160006101000a81548160ff021916908360ff1602179055506020820151816001015560408201518160020160006101000a81548173ffffffffffffffffffffffffffffffffffffffff021916908373ffffffffffffffffffffffffffffffffffffffff160217905550606082015181600301908051906020019062000541929190620008b5565b5090505060038190806001815401808255809150509060018203906000526020600020016000909192909190915055506000620005eb600260009054906101000a900473ffffffffffffffffffffffffffffffffffffffff166040805190810160405280600781526020017f464c4947485433000000000000000000000000000000000000000000000000008152506202a300420162000762640100000000026401000000009004565b9050608060405190810160405280600060ff1681526020016202a30042018152602001600260009054906101000a900473ffffffffffffffffffffffffffffffffffffffff1673ffffffffffffffffffffffffffffffffffffffff1681526020016040805190810160405280600781526020017f464c4947485433000000000000000000000000000000000000000000000000008152508152506007600083815260200190815260200160002060008201518160000160006101000a81548160ff021916908360ff1602179055506020820151816001015560408201518160020160006101000a81548173ffffffffffffffffffffffffffffffffffffffff021916908373ffffffffffffffffffffffffffffffffffffffff160217905550606082015181600301908051906020019062000728929190620008b5565b5090505060038190806001815401808255809150509060018203906000526020600020016000909192909190915055505050505062000964565b6000838383604051602001808473ffffffffffffffffffffffffffffffffffffffff1673ffffffffffffffffffffffffffffffffffffffff166c0100000000000000000000000002815260140183805190602001908083835b602083101515620007e25780518252602082019150602081019050602083039250620007bb565b6001836020036101000a03801982511681845116808217855250505050505090500182815260200193505050506040516020818303038152906040528051906020012090509392505050565b828054600181600116156101000203166002900490600052602060002090601f016020900481019282601f106200087157805160ff1916838001178555620008a2565b82800160010185558215620008a2579182015b82811115620008a157825182559160200191906001019062000884565b5b509050620008b191906200093c565b5090565b828054600181600116156101000203166002900490600052602060002090601f016020900481019282601f10620008f857805160ff191683800117855562000929565b8280016001018555821562000929579182015b82811115620009285782518255916020019190600101906200090b565b5b5090506200093891906200093c565b5090565b6200096191905b808211156200095d57600081600090555060010162000943565b5090565b90565b613a4c80620009746000396000f3fe608060405260043610610143576000357c010000000000000000000000000000000000000000000000000000000090048063110466ed1461014857806312065fe01461018557806325205210146101b0578063339d2590146102365780633a4396cb146102405780633bc5de301461033b57806347064d6a146103cb57806355e2ece4146104515780635870c417146104a25780635f1cc0e61461054a5780635fd8c7101461059d57806364b4f751146105b457806373d4a13a146105df5780637989f1a81461066f5780637f7dcdbf1461070257806388d2c5f314610731578063a9279ed81461075c578063ba273551146107ff578063c10f27001461082e578063c820cb14146108f8578063cd905dff146109a8578063e375e926146109d7578063f2727bea14610a02578063f83f11c014610a2d578063fe2f87b914610add575b600080fd5b34801561015457600080fd5b506101836004803603602081101561016b57600080fd5b81019080803515159060200190929190505050610ae7565b005b34801561019157600080fd5b5061019a610c4c565b6040518082815260200191505060405180910390f35b3480156101bc57600080fd5b50610234600480360360208110156101d357600080fd5b81019080803590602001906401000000008111156101f057600080fd5b82018360208201111561020257600080fd5b8035906020019184600183028401116401000000008311171561022457600080fd5b9091929391929390505050610d48565b005b61023e610ec3565b005b34801561024c57600080fd5b506102796004803603602081101561026357600080fd5b8101908080359060200190929190505050611081565b604051808573ffffffffffffffffffffffffffffffffffffffff1673ffffffffffffffffffffffffffffffffffffffff168152602001806020018481526020018360ff1660ff168152602001828103825285818151815260200191508051906020019080838360005b838110156102fd5780820151818401526020810190506102e2565b50505050905090810190601f16801561032a5780820380516001836020036101000a031916815260200191505b509550505050505060405180910390f35b34801561034757600080fd5b5061035061121c565b6040518080602001828103825283818151815260200191508051906020019080838360005b83811015610390578082015181840152602081019050610375565b50505050905090810190601f1680156103bd5780820380516001836020036101000a031916815260200191505b509250505060405180910390f35b3480156103d757600080fd5b5061044f600480360360208110156103ee57600080fd5b810190808035906020019064010000000081111561040b57600080fd5b82018360208201111561041d57600080fd5b8035906020019184600183028401116401000000008311171561043f57600080fd5b90919293919293905050506112be565b005b34801561045d57600080fd5b506104a06004803603602081101561047457600080fd5b81019080803573ffffffffffffffffffffffffffffffffffffffff169060200190929190505050611370565b005b3480156104ae57600080fd5b50610526600480360360208110156104c557600080fd5b81019080803590602001906401000000008111156104e257600080fd5b8201836020820111156104f457600080fd5b8035906020019184600183028401116401000000008311171561051657600080fd5b90919293919293905050506119f3565b60405180848152602001838152602001828152602001935050505060405180910390f35b34801561055657600080fd5b5061055f611b42565b6040518082600360200280838360005b8381101561058a57808201518184015260208101905061056f565b5050505090500191505060405180910390f35b3480156105a957600080fd5b506105b2611cb7565b005b3480156105c057600080fd5b506105c9611d8d565b6040518082815260200191505060405180910390f35b3480156105eb57600080fd5b506105f4611d97565b6040518080602001828103825283818151815260200191508051906020019080838360005b83811015610634578082015181840152602081019050610619565b50505050905090810190601f1680156106615780820380516001836020036101000a031916815260200191505b509250505060405180910390f35b34801561067b57600080fd5b506107006004803603604081101561069257600080fd5b81019080803560ff169060200190929190803590602001906401000000008111156106bc57600080fd5b8201836020820111156106ce57600080fd5b803590602001918460018302840111640100000000831117156106f057600080fd5b9091929391929390505050611e35565b005b34801561070e57600080fd5b5061071761214c565b604051808215151515815260200191505060405180910390f35b34801561073d57600080fd5b506107466121a4565b6040518082815260200191505060405180910390f35b6107fd6004803603606081101561077257600080fd5b81019080803573ffffffffffffffffffffffffffffffffffffffff169060200190929190803590602001906401000000008111156107af57600080fd5b8201836020820111156107c157600080fd5b803590602001918460018302840111640100000000831117156107e357600080fd5b9091929391929390803590602001909291905050506121b1565b005b34801561080b57600080fd5b50610814612553565b604051808215151515815260200191505060405180910390f35b34801561083a57600080fd5b506108f6600480360360a081101561085157600080fd5b81019080803560ff169060200190929190803573ffffffffffffffffffffffffffffffffffffffff1690602001909291908035906020019064010000000081111561089b57600080fd5b8201836020820111156108ad57600080fd5b803590602001918460018302840111640100000000831117156108cf57600080fd5b909192939192939080359060200190929190803560ff1690602001909291905050506125bc565b005b34801561090457600080fd5b506109a66004803603606081101561091b57600080fd5b81019080803573ffffffffffffffffffffffffffffffffffffffff1690602001909291908035906020019064010000000081111561095857600080fd5b82018360208201111561096a57600080fd5b8035906020019184600183028401116401000000008311171561098c57600080fd5b909192939192939080359060200190929190505050612b9a565b005b3480156109b457600080fd5b506109bd612d9d565b604051808215151515815260200191505060405180910390f35b3480156109e357600080fd5b506109ec612db4565b6040518082815260200191505060405180910390f35b348015610a0e57600080fd5b50610a17612dc0565b6040518082815260200191505060405180910390f35b348015610a3957600080fd5b50610adb60048036036060811015610a5057600080fd5b81019080803573ffffffffffffffffffffffffffffffffffffffff16906020019092919080359060200190640100000000811115610a8d57600080fd5b820183602082011115610a9f57600080fd5b80359060200191846001830284011164010000000083111715610ac157600080fd5b909192939192939080359060200190929190505050612dc5565b005b610ae5612fe1565b005b600260009054906101000a900473ffffffffffffffffffffffffffffffffffffffff1673ffffffffffffffffffffffffffffffffffffffff163373ffffffffffffffffffffffffffffffffffffffff16141515610bac576040517f08c379a000000000000000000000000000000000000000000000000000000000815260040180806020018281038252601c8152602001807f43616c6c6572206973206e6f7420636f6e7472616374206f776e65720000000081525060200191505060405180910390fd5b80600260146101000a81548160ff0219169083151502179055507f66efbee5cbc2b4c0e987ea5e318357737bb8c512ca0f6cb8347959068580d7ac600260149054906101000a900460ff16604051808215151515815260200180602001828103825260178152602001807f436f6e74726163742053746174757320557064617465640000000000000000008152506020019250505060405180910390a150565b60008060009054906101000a900473ffffffffffffffffffffffffffffffffffffffff1673ffffffffffffffffffffffffffffffffffffffff1663385de787336040518263ffffffff167c0100000000000000000000000000000000000000000000000000000000028152600401808273ffffffffffffffffffffffffffffffffffffffff1673ffffffffffffffffffffffffffffffffffffffff16815260200191505060206040518083038186803b158015610d0857600080fd5b505afa158015610d1c573d6000803e3d6000fd5b505050506040513d6020811015610d3257600080fd5b8101908080519060200190929190505050905090565b6000809054906101000a900473ffffffffffffffffffffffffffffffffffffffff1673ffffffffffffffffffffffffffffffffffffffff1663464baab933600085856040518563ffffffff167c0100000000000000000000000000000000000000000000000000000000028152600401808573ffffffffffffffffffffffffffffffffffffffff1673ffffffffffffffffffffffffffffffffffffffff1681526020018460ff168152602001806020018281038252848482818152602001925080828437600081840152601f19601f82011690508083019250505095505050505050600060405180830381600087803b158015610e4457600080fd5b505af1158015610e58573d6000803e3d6000fd5b505050507ff9979672c376def736338646d31b9da30c88dd993d958d2933b66a83450875c533604051808273ffffffffffffffffffffffffffffffffffffffff1673ffffffffffffffffffffffffffffffffffffffff16815260200191505060405180910390a15050565b655af3107a40003410151515610f41576040517f08c379a000000000000000000000000000000000000000000000000000000000815260040180806020018281038252601c8152602001807f526567697374726174696f6e206665652069732072657175697265640000000081525060200191505060405180910390fd5b610f4961380e565b610f523361337c565b9050604080519081016040528060011515815260200182815250600660003373ffffffffffffffffffffffffffffffffffffffff1673ffffffffffffffffffffffffffffffffffffffff16815260200190815260200160002060008201518160000160006101000a81548160ff021916908315150217905550602082015181600101906003610fe2929190613831565b509050507fb37ae812059c085773f1bb73af6a5ccb5336879d4ba7205f675493a9f1a11f2e816040518082600360200280838360005b83811015611033578082015181840152602081019050611018565b50505050905001806020018281038252601b8152602001807f4f7261636c6520686173206265656e20726567697374657265642e00000000008152506020019250505060405180910390a150565b600060606000806007600060038781548110151561109b57fe5b9060005260206000200154815260200190815260200160002060020160009054906101000a900473ffffffffffffffffffffffffffffffffffffffff169350600760006003878154811015156110ed57fe5b906000526020600020015481526020019081526020016000206003018054600181600116156101000203166002900480601f01602080910402602001604051908101604052809291908181526020018280546001816001161561010002031660029004801561119d5780601f106111725761010080835404028352916020019161119d565b820191906000526020600020905b81548152906001019060200180831161118057829003601f168201915b50505050509250600760006003878154811015156111b757fe5b90600052602060002001548152602001908152602001600020600101549150600760006003878154811015156111e957fe5b9060005260206000200154815260200190815260200160002060000160009054906101000a900460ff1690509193509193565b606060058054600181600116156101000203166002900480601f0160208091040260200160405190810160405280929190818152602001828054600181600116156101000203166002900480156112b45780601f10611289576101008083540402835291602001916112b4565b820191906000526020600020905b81548152906001019060200180831161129757829003601f168201915b5050505050905090565b8181600591906112cf9291906138cb565b507fbb7ba689bfe3b74780e467c4bd8e81ee9847d622e21163d9ef023879ea06b98182826040518080602001806020018381038352858582818152602001925080828437600081840152601f19601f820116905080830192505050838103825260138152602001807f4461746120686173206265656e2073617665640000000000000000000000000081525060200194505050505060405180910390a15050565b60026000809054906101000a900473ffffffffffffffffffffffffffffffffffffffff1673ffffffffffffffffffffffffffffffffffffffff16631537b7e0336040518263ffffffff167c0100000000000000000000000000000000000000000000000000000000028152600401808273ffffffffffffffffffffffffffffffffffffffff1673ffffffffffffffffffffffffffffffffffffffff168152602001915050602060405180830381600087803b15801561142e57600080fd5b505af1158015611442573d6000803e3d6000fd5b505050506040513d602081101561145857600080fd5b81019080805190602001909291905050501415156114de576040517f08c379a000000000000000000000000000000000000000000000000000000000815260040180806020018281038252601a8152602001807f4f6e6c792070616964206169726c696e657320616c6c6f77656400000000000081525060200191505060405180910390fd5b60008060009054906101000a900473ffffffffffffffffffffffffffffffffffffffff1673ffffffffffffffffffffffffffffffffffffffff16631537b7e0836040518263ffffffff167c0100000000000000000000000000000000000000000000000000000000028152600401808273ffffffffffffffffffffffffffffffffffffffff1673ffffffffffffffffffffffffffffffffffffffff168152602001915050602060405180830381600087803b15801561159c57600080fd5b505af11580156115b0573d6000803e3d6000fd5b505050506040513d60208110156115c657600080fd5b8101908080519060200190929190505050141515611672576040517f08c379a00000000000000000000000000000000000000000000000000000000081526004018080602001828103825260288152602001807f54686973206169726c696e65206861736e2774206170706c69656420666f722081526020017f617070726f76616c00000000000000000000000000000000000000000000000081525060400191505060405180910390fd5b600080905060008060009054906101000a900473ffffffffffffffffffffffffffffffffffffffff1673ffffffffffffffffffffffffffffffffffffffff1663dd177bb96040518163ffffffff167c0100000000000000000000000000000000000000000000000000000000028152600401602060405180830381600087803b1580156116fe57600080fd5b505af1158015611712573d6000803e3d6000fd5b505050506040513d602081101561172857600080fd5b81019080805190602001909291905050509050600460ff1681101561175057600191506118a4565b60008060009054906101000a900473ffffffffffffffffffffffffffffffffffffffff1673ffffffffffffffffffffffffffffffffffffffff1663c0453e3685336040518363ffffffff167c0100000000000000000000000000000000000000000000000000000000028152600401808373ffffffffffffffffffffffffffffffffffffffff1673ffffffffffffffffffffffffffffffffffffffff1681526020018273ffffffffffffffffffffffffffffffffffffffff1673ffffffffffffffffffffffffffffffffffffffff16815260200192505050602060405180830381600087803b15801561184257600080fd5b505af1158015611856573d6000803e3d6000fd5b505050506040513d602081101561186c57600080fd5b81019080805190602001909291905050509050600060028381151561188d57fe5b049050808260ff161015156118a157600193505b50505b81156119ee576000809054906101000a900473ffffffffffffffffffffffffffffffffffffffff1673ffffffffffffffffffffffffffffffffffffffff1663cd441c4d8460016040518363ffffffff167c0100000000000000000000000000000000000000000000000000000000028152600401808373ffffffffffffffffffffffffffffffffffffffff1673ffffffffffffffffffffffffffffffffffffffff1681526020018260ff16815260200192505050600060405180830381600087803b15801561197257600080fd5b505af1158015611986573d6000803e3d6000fd5b505050507f89a6354fb229eda6cbc28306798727b4d524818d2c375220bc3f360f24cffaca83604051808273ffffffffffffffffffffffffffffffffffffffff1673ffffffffffffffffffffffffffffffffffffffff16815260200191505060405180910390a15b505050565b60008060008060009054906101000a900473ffffffffffffffffffffffffffffffffffffffff1673ffffffffffffffffffffffffffffffffffffffff1663b96978833387876040518463ffffffff167c0100000000000000000000000000000000000000000000000000000000028152600401808473ffffffffffffffffffffffffffffffffffffffff1673ffffffffffffffffffffffffffffffffffffffff168152602001806020018281038252848482818152602001925080828437600081840152601f19601f82011690508083019250505094505050505060606040518083038186803b158015611ae657600080fd5b505afa158015611afa573d6000803e3d6000fd5b505050506040513d6060811015611b1057600080fd5b810190808051906020019092919080519060200190929190805190602001909291905050509250925092509250925092565b611b4a61380e565b600660003373ffffffffffffffffffffffffffffffffffffffff1673ffffffffffffffffffffffffffffffffffffffff16815260200190815260200160002060000160009054906101000a900460ff161515611c0e576040517f08c379a000000000000000000000000000000000000000000000000000000000815260040180806020018281038252601b8152602001807f4e6f74207265676973746572656420617320616e206f7261636c65000000000081525060200191505060405180910390fd5b600660003373ffffffffffffffffffffffffffffffffffffffff1673ffffffffffffffffffffffffffffffffffffffff168152602001908152602001600020600101600380602002604051908101604052809291908260038015611cad576020028201916000905b82829054906101000a900460ff1660ff1681526020019060010190602082600001049283019260010382029150808411611c765790505b5050505050905090565b6000809054906101000a900473ffffffffffffffffffffffffffffffffffffffff1673ffffffffffffffffffffffffffffffffffffffff1663f8ff28cb336040518263ffffffff167c0100000000000000000000000000000000000000000000000000000000028152600401808273ffffffffffffffffffffffffffffffffffffffff1673ffffffffffffffffffffffffffffffffffffffff168152602001915050600060405180830381600087803b158015611d7357600080fd5b505af1158015611d87573d6000803e3d6000fd5b50505050565b655af3107a400081565b60058054600181600116156101000203166002900480601f016020809104026020016040519081016040528092919081815260200182805460018160011615610100020316600290048015611e2d5780601f10611e0257610100808354040283529160200191611e2d565b820191906000526020600020905b815481529060010190602001808311611e1057829003601f168201915b505050505081565b60026000809054906101000a900473ffffffffffffffffffffffffffffffffffffffff1673ffffffffffffffffffffffffffffffffffffffff16631537b7e0336040518263ffffffff167c0100000000000000000000000000000000000000000000000000000000028152600401808273ffffffffffffffffffffffffffffffffffffffff1673ffffffffffffffffffffffffffffffffffffffff168152602001915050602060405180830381600087803b158015611ef357600080fd5b505af1158015611f07573d6000803e3d6000fd5b505050506040513d6020811015611f1d57600080fd5b8101908080519060200190929190505050141515611fa3576040517f08c379a000000000000000000000000000000000000000000000000000000000815260040180806020018281038252601a8152602001807f4f6e6c792070616964206169726c696e657320616c6c6f77656400000000000081525060200191505060405180910390fd5b6000611ff43384848080601f016020809104026020016040519081016040528093929190818152602001838380828437600081840152601f19601f8201169050808301925050505050505042613522565b90506080604051908101604052808560ff1681526020014281526020013373ffffffffffffffffffffffffffffffffffffffff16815260200184848080601f016020809104026020016040519081016040528093929190818152602001838380828437600081840152601f19601f820116905080830192505050505050508152506007600083815260200190815260200160002060008201518160000160006101000a81548160ff021916908360ff1602179055506020820151816001015560408201518160020160006101000a81548173ffffffffffffffffffffffffffffffffffffffff021916908373ffffffffffffffffffffffffffffffffffffffff160217905550606082015181600301908051906020019061211692919061394b565b50905050600381908060018154018082558091505090600182039060005260206000200160009091929091909150555050505050565b6000600260009054906101000a900473ffffffffffffffffffffffffffffffffffffffff1673ffffffffffffffffffffffffffffffffffffffff163373ffffffffffffffffffffffffffffffffffffffff1614905090565b6000600380549050905090565b60006122028585858080601f016020809104026020016040519081016040528093929190818152602001838380828437600081840152601f19601f8201169050808301925050505050505084613522565b90506000600760008381526020019081526020016000206003018054600181600116156101000203166002900490501115156122a6576040517f08c379a00000000000000000000000000000000000000000000000000000000081526004018080602001828103825260158152602001807f466c6967687420646f6573206e6f74206578697374000000000000000000000081525060200191505060405180910390fd5b670de0b6b3a7640000341115151561234c576040517f08c379a00000000000000000000000000000000000000000000000000000000081526004018080602001828103825260358152602001807f50617373656e676572732063616e206275792061206d6178696d756d206f662081526020017f3120657468657220666f7220696e737572616e6365000000000000000000000081525060400191505060405180910390fd5b600160009054906101000a900473ffffffffffffffffffffffffffffffffffffffff1673ffffffffffffffffffffffffffffffffffffffff166108fc349081150290604051600060405180830381858888f193505050501580156123b4573d6000803e3d6000fd5b5060006002348115156123c357fe5b04340190506000809054906101000a900473ffffffffffffffffffffffffffffffffffffffff1673ffffffffffffffffffffffffffffffffffffffff1663014299b233878734866040518663ffffffff167c0100000000000000000000000000000000000000000000000000000000028152600401808673ffffffffffffffffffffffffffffffffffffffff1673ffffffffffffffffffffffffffffffffffffffff168152602001806020018481526020018381526020018281038252868682818152602001925080828437600081840152601f19601f8201169050808301925050509650505050505050600060405180830381600087803b1580156124c857600080fd5b505af11580156124dc573d6000803e3d6000fd5b505050507f10f7330e4aaa31f143ab522405b76bdac5ac6e2771f3fd84244a2531ce9256893383604051808373ffffffffffffffffffffffffffffffffffffffff1673ffffffffffffffffffffffffffffffffffffffff1681526020018281526020019250505060405180910390a1505050505050565b6000600260009054906101000a900473ffffffffffffffffffffffffffffffffffffffff1673ffffffffffffffffffffffffffffffffffffffff163373ffffffffffffffffffffffffffffffffffffffff1614156125b457600190506125b9565b600090505b90565b8560ff16600660003373ffffffffffffffffffffffffffffffffffffffff1673ffffffffffffffffffffffffffffffffffffffff168152602001908152602001600020600101600060038110151561261057fe5b602091828204019190069054906101000a900460ff1660ff16148061269f57508560ff16600660003373ffffffffffffffffffffffffffffffffffffffff1673ffffffffffffffffffffffffffffffffffffffff168152602001908152602001600020600101600160038110151561268457fe5b602091828204019190069054906101000a900460ff1660ff16145b8061271457508560ff16600660003373ffffffffffffffffffffffffffffffffffffffff1673ffffffffffffffffffffffffffffffffffffffff16815260200190815260200160002060010160026003811015156126f957fe5b602091828204019190069054906101000a900460ff1660ff16145b15156127ae576040517f08c379a00000000000000000000000000000000000000000000000000000000081526004018080602001828103825260238152602001807f496e64657820646f6573206e6f74206d61746368206f7261636c65207265717581526020017f657374000000000000000000000000000000000000000000000000000000000081525060400191505060405180910390fd5b60008686868686604051602001808660ff1660ff167f01000000000000000000000000000000000000000000000000000000000000000281526001018573ffffffffffffffffffffffffffffffffffffffff1673ffffffffffffffffffffffffffffffffffffffff166c0100000000000000000000000002815260140184848082843780830192505050828152602001955050505050506040516020818303038152906040528051906020012090506008600082815260200190815260200160002060000160149054906101000a900460ff16151561291b576040517f08c379a000000000000000000000000000000000000000000000000000000000815260040180806020018281038252602f8152602001807f466c69676874206f722074696d657374616d7020646f206e6f74206d6174636881526020017f206f7261636c652072657175657374000000000000000000000000000000000081525060400191505060405180910390fd5b6008600082815260200190815260200160002060010160008360ff1660ff1681526020019081526020016000203390806001815401808255809150509060018203906000526020600020016000909192909190916101000a81548173ffffffffffffffffffffffffffffffffffffffff021916908373ffffffffffffffffffffffffffffffffffffffff160217905550507f43c853095c2752648493c88b4baac4d580d2594ffb00c6f1d4242d844514f7838686868686604051808673ffffffffffffffffffffffffffffffffffffffff1673ffffffffffffffffffffffffffffffffffffffff168152602001806020018481526020018360ff1660ff1681526020018281038252868682818152602001925080828437600081840152601f19601f820116905080830192505050965050505050505060405180910390a160036008600083815260200190815260200160002060010160008460ff1660ff16815260200190815260200160002080549050101515612b91577fe23f5229de535c091e3b7bec2665f5d698192d3b31393066e8987b7a05076b6c8686868686604051808673ffffffffffffffffffffffffffffffffffffffff1673ffffffffffffffffffffffffffffffffffffffff168152602001806020018481526020018360ff1660ff1681526020018281038252868682818152602001925080828437600081840152601f19601f820116905080830192505050965050505050505060405180910390a1612b908686868080601f016020809104026020016040519081016040528093929190818152602001838380828437600081840152601f19601f8201169050808301925050505050505085856135ec565b5b50505050505050565b6000612beb8585858080601f016020809104026020016040519081016040528093929190818152602001838380828437600081840152601f19601f8201169050808301925050505050505084613522565b9050601460ff166007600083815260200190815260200160002060000160009054906101000a900460ff1660ff16141515612c8e576040517f08c379a00000000000000000000000000000000000000000000000000000000081526004018080602001828103825260168152602001807f466c6967687420776173206e6f742064656c617965640000000000000000000081525060200191505060405180910390fd5b6000809054906101000a900473ffffffffffffffffffffffffffffffffffffffff1673ffffffffffffffffffffffffffffffffffffffff16633491daf03386866040518463ffffffff167c0100000000000000000000000000000000000000000000000000000000028152600401808473ffffffffffffffffffffffffffffffffffffffff1673ffffffffffffffffffffffffffffffffffffffff168152602001806020018281038252848482818152602001925080828437600081840152601f19601f820116905080830192505050945050505050600060405180830381600087803b158015612d7e57600080fd5b505af1158015612d92573d6000803e3d6000fd5b505050505050505050565b6000600260149054906101000a900460ff16905090565b670de0b6b3a764000081565b600281565b6000612dd03361370f565b905060008186868686604051602001808660ff1660ff167f01000000000000000000000000000000000000000000000000000000000000000281526001018573ffffffffffffffffffffffffffffffffffffffff1673ffffffffffffffffffffffffffffffffffffffff166c01000000000000000000000000028152601401848480828437808301925050508281526020019550505050505060405160208183030381529060405280519060200120905060408051908101604052803373ffffffffffffffffffffffffffffffffffffffff168152602001600115158152506008600083815260200190815260200160002060008201518160000160006101000a81548173ffffffffffffffffffffffffffffffffffffffff021916908373ffffffffffffffffffffffffffffffffffffffff16021790555060208201518160000160146101000a81548160ff0219169083151502179055509050507f3ed01f2c3fc24c6b329d931e35b03e390d23497d22b3f90e15b600343e93df118287878787604051808660ff1660ff1681526020018573ffffffffffffffffffffffffffffffffffffffff1673ffffffffffffffffffffffffffffffffffffffff168152602001806020018381526020018281038252858582818152602001925080828437600081840152601f19601f820116905080830192505050965050505050505060405180910390a1505050505050565b60016000809054906101000a900473ffffffffffffffffffffffffffffffffffffffff1673ffffffffffffffffffffffffffffffffffffffff16631537b7e0336040518263ffffffff167c0100000000000000000000000000000000000000000000000000000000028152600401808273ffffffffffffffffffffffffffffffffffffffff1673ffffffffffffffffffffffffffffffffffffffff168152602001915050602060405180830381600087803b15801561309f57600080fd5b505af11580156130b3573d6000803e3d6000fd5b505050506040513d60208110156130c957600080fd5b810190808051906020019092919050505014151561314f576040517f08c379a00000000000000000000000000000000000000000000000000000000081526004018080602001828103825260178152602001807f4f6e6c79207265676973746572656420616c6c6f77656400000000000000000081525060200191505060405180910390fd5b678ac7230489e80000341415156131ce576040517f08c379a000000000000000000000000000000000000000000000000000000000815260040180806020018281038252601f8152602001807f5061796d656e74206f662031302065746865722069732072657175697265640081525060200191505060405180910390fd5b600160009054906101000a900473ffffffffffffffffffffffffffffffffffffffff1673ffffffffffffffffffffffffffffffffffffffff166108fc349081150290604051600060405180830381858888f19350505050158015613236573d6000803e3d6000fd5b506000809054906101000a900473ffffffffffffffffffffffffffffffffffffffff1673ffffffffffffffffffffffffffffffffffffffff1663cd441c4d3360026040518363ffffffff167c0100000000000000000000000000000000000000000000000000000000028152600401808373ffffffffffffffffffffffffffffffffffffffff1673ffffffffffffffffffffffffffffffffffffffff1681526020018260ff16815260200192505050600060405180830381600087803b1580156132ff57600080fd5b505af1158015613313573d6000803e3d6000fd5b505050507fad9921fcabbc5a673025ca3b0152068865e0726f300582f815fc4fad8319042433604051808273ffffffffffffffffffffffffffffffffffffffff1673ffffffffffffffffffffffffffffffffffffffff16815260200191505060405180910390a1565b61338461380e565b61338c61380e565b6133958361370f565b8160006003811015156133a457fe5b602002019060ff16908160ff16815250508060006003811015156133c457fe5b60200201518160016003811015156133d857fe5b602002019060ff16908160ff16815250505b8060006003811015156133f957fe5b602002015160ff1681600160038110151561341057fe5b602002015160ff16141561344c576134278361370f565b81600160038110151561343657fe5b602002019060ff16908160ff16815250506133ea565b80600160038110151561345b57fe5b602002015181600260038110151561346f57fe5b602002019060ff16908160ff16815250505b80600060038110151561349057fe5b602002015160ff168160026003811015156134a757fe5b602002015160ff1614806134e657508060016003811015156134c557fe5b602002015160ff168160026003811015156134dc57fe5b602002015160ff16145b15613519576134f48361370f565b81600260038110151561350357fe5b602002019060ff16908160ff1681525050613481565b80915050919050565b6000838383604051602001808473ffffffffffffffffffffffffffffffffffffffff1673ffffffffffffffffffffffffffffffffffffffff166c0100000000000000000000000002815260140183805190602001908083835b6020831015156135a0578051825260208201915060208101905060208303925061357b565b6001836020036101000a03801982511681845116808217855250505050505090500182815260200193505050506040516020818303038152906040528051906020012090509392505050565b60006135f9858585613522565b9050816007600083815260200190815260200160002060000160006101000a81548160ff021916908360ff1602179055507ff90cde8bd983bba387ce09cf31e9e1e1439476a10b73812b4bdd4238abd98785858584604051808473ffffffffffffffffffffffffffffffffffffffff1673ffffffffffffffffffffffffffffffffffffffff168152602001806020018360ff1660ff168152602001828103825284818151815260200191508051906020019080838360005b838110156136cc5780820151818401526020810190506136b1565b50505050905090810190601f1680156136f95780820380516001836020036101000a031916815260200191505b5094505050505060405180910390a15050505050565b600080600a905060008160ff166004600081819054906101000a900460ff168092919060010191906101000a81548160ff021916908360ff16021790555060ff1643034085604051602001808381526020018273ffffffffffffffffffffffffffffffffffffffff1673ffffffffffffffffffffffffffffffffffffffff166c010000000000000000000000000281526014019250505060405160208183030381529060405280519060200120600190048115156137c957fe5b06905060fa600460009054906101000a900460ff1660ff161115613804576000600460006101000a81548160ff021916908360ff1602179055505b8092505050919050565b606060405190810160405280600390602082028038833980820191505090505090565b826003601f016020900481019282156138ba5791602002820160005b8382111561388b57835183826101000a81548160ff021916908360ff160217905550926020019260010160208160000104928301926001030261384d565b80156138b85782816101000a81549060ff021916905560010160208160000104928301926001030261388b565b505b5090506138c791906139cb565b5090565b828054600181600116156101000203166002900490600052602060002090601f016020900481019282601f1061390c57803560ff191683800117855561393a565b8280016001018555821561393a579182015b8281111561393957823582559160200191906001019061391e565b5b50905061394791906139fb565b5090565b828054600181600116156101000203166002900490600052602060002090601f016020900481019282601f1061398c57805160ff19168380011785556139ba565b828001600101855582156139ba579182015b828111156139b957825182559160200191906001019061399e565b5b5090506139c791906139fb565b5090565b6139f891905b808211156139f457600081816101000a81549060ff0219169055506001016139d1565b5090565b90565b613a1d91905b80821115613a19576000816000905550600101613a01565b5090565b9056fea165627a7a72305820c659f791709c864a8757dbd3e9b65541dbcd96e542bf3aefb57b683d06db4e4e0029",
  "source": "pragma solidity ^0.5.0;\n\n// It's important to avoid vulnerabilities due to numeric overflow bugs\n// OpenZeppelin's SafeMath library, when used correctly, protects agains such bugs\n// More info: https://www.nccgroup.trust/us/about-us/newsroom-and-events/blog/2018/\\\n// november/smart-contract-insecurity-bad-arithmetic/\n\n// import \"@openzeppelin/contracts/lifecycle/Pausable.sol\";\n// import \"@openzeppelin/contracts/ownership/Ownable.sol\";\nimport \"@openzeppelin/contracts/math/SafeMath.sol\";\n\n/* FlightSurety Smart Contract *********************************************************/\n\ncontract FlightSuretyApp {  // is Ownable, Pausable\n\n    using SafeMath for uint256;\n\n\n    /* DATA VARIABLES ******************************************************************/\n\n    FlightSuretyData flightSuretyData;\n\n    address payable flightSuretyDataContractAddress;\n    address private contractOwner;\n    bool private operational = true;\n    bytes32[] private flightsKeyList;\n    uint8 private constant NO_AIRLINES_REQUIRED_FOR_CONSENSUS_VOTING = 4;\n    uint8 private constant STATUS_CODE_UNKNOWN = 0;\n    uint8 private constant STATUS_CODE_ON_TIME = 10;\n    uint8 private constant STATUS_CODE_LATE_AIRLINE = 20; // only code that results in payout\n    uint8 private constant STATUS_CODE_LATE_WEATHER = 30;\n    uint8 private constant STATUS_CODE_LATE_TECHNICAL = 40;\n    uint8 private constant STATUS_CODE_LATE_OTHER = 50;\n    uint8 private nonce = 0;\n    uint256 public constant REGISTRATION_FEE = 0.0001 ether;\n    uint256 private constant MIN_RESPONSES = 3;\n    string public data;\n\n    struct Flight {\n        uint8 statusCode;\n        uint256 timestamp;\n        address airline;\n        string  flight;\n    }\n\n    struct Oracle { bool isRegistered;\n        uint8[3] indexes;\n    }\n\n    struct ResponseInfo {\n        address requester;                              \n        bool isOpen;                                    \n        mapping(uint8 => address[]) responses;          \n    }\n\n    mapping(address => Oracle) private oracles;\n    mapping(bytes32 => Flight) private flights;\n    mapping(bytes32 => ResponseInfo) private oracleResponses;\n\n\n    /* EVENT DEFINITIONS ***************************************************************/\n\n    event AirlineApplied(address airline);\n    event AirlineRegistered(address airline);\n    event AirlinePaid(address airline);\n    event FlightStatusProcessed(address airline, string flight, uint8 statusCode);\n    event PassengerInsuranceBought(address passenger, bytes32 flightKey);\n    event FlightStatusInfo(\n        address airline, string flight, uint256 timestamp, uint8 status\n    );\n    event OracleReport(address airline, string flight, uint256 timestamp, uint8 status);\n    event OracleRequest(uint8 index, address airline, string flight, uint256 timestamp);\n    event OracleIsRegistered(uint8[3] idx, string _message);\n    event ContractOperatingStatus(bool status, string _message);\n    event DataSaved(string data, string _message);\n\n\n    /* FUNCTION MODIFIERS **************************************************************/\n\n    modifier requireIsOperational() {\n        require(operational, \"Contract is currently not operational\");\n        _;\n    }\n\n    modifier requireContractOwner() {\n        require(msg.sender == contractOwner, \"Caller is not contract owner\");\n        _;\n    }\n\n    modifier onlyRegisteredAirlines() {\n        require(flightSuretyData.getAirlineState(msg.sender) == 1, \"Only registered allowed\");\n        _;\n    }\n\n    modifier onlyPaidAirlines() {\n        require(flightSuretyData.getAirlineState(msg.sender) == 2, \"Only paid airlines allowed\");\n        _;\n    }\n\n\n    /* CONSTRUCTOR *********************************************************************/\n\n    constructor(address payable dataContractAddress) public\n    {\n        contractOwner = msg.sender;\n\n        flightSuretyDataContractAddress = dataContractAddress;\n        flightSuretyData = FlightSuretyData(flightSuretyDataContractAddress);\n        data = \"Seed Data\";\n\n\n        // Initial flights\n\n        bytes32 flightKey1 = getFlightKey(contractOwner, \"FLIGHT1\", now);\n        flights[flightKey1] = Flight(STATUS_CODE_UNKNOWN, now, contractOwner, \"FLIGHT1\");\n        flightsKeyList.push(flightKey1);\n\n        bytes32 flightKey2 = getFlightKey(contractOwner, \"FLIGHT2\", now + 1 days);\n        flights[flightKey2] = Flight(STATUS_CODE_UNKNOWN, now + 1 days, contractOwner, \"FLIGHT2\");\n        flightsKeyList.push(flightKey2);\n\n        bytes32 flightKey3 = getFlightKey(contractOwner, \"FLIGHT3\", now + 2 days);\n        flights[flightKey3] = Flight(STATUS_CODE_UNKNOWN, now + 2 days, contractOwner, \"FLIGHT3\");\n        flightsKeyList.push(flightKey3);\n    }\n\n\n    /* UTILITY FUNCTIONS ***************************************************************/\n\n    function isContractOwner() public view returns (bool) {\n        return (msg.sender == contractOwner);\n    }\n\n    function isOperational() public view returns (bool) {\n        return operational;\n    }\n\n    function setOperatingStatus (bool mode) external requireContractOwner {\n        operational = mode;\n        emit ContractOperatingStatus(operational, \"Contract Status Updated\");\n    }\n\n    function refreshAccount() public view returns (bool) {\n        if (msg.sender == contractOwner) {\n            return true;\n        } else {\n            return false;\n        }\n    }\n\n    function getData() view external returns(string memory) {\n        return data;\n    }\n    function setData(string calldata _data) external {\n        data = _data;\n        emit DataSaved(_data, \"Data has been saved\");\n    }\n    /* SMART CONTRACT FUNCTIONS ********************************************************/\n\n    /* AIRLINES */\n\n    function registerAirline(string calldata airlineName) external \n    {\n        flightSuretyData.createAirline(msg.sender, 0, airlineName);\n        emit AirlineApplied(msg.sender);\n    }\n\n    function approveAirlineRegistration(address airline) external onlyPaidAirlines \n    {\n        require(flightSuretyData.getAirlineState(airline) == 0, \"This airline hasn't applied for approval\");\n\n        bool approved = false;\n        uint256 totalPaidAirlines = flightSuretyData.getTotalPaidAirlines();\n\n        if (totalPaidAirlines < NO_AIRLINES_REQUIRED_FOR_CONSENSUS_VOTING) {\n            approved = true;\n        } else {\n            uint8 approvalCount = flightSuretyData.approveAirlineRegistration(airline, msg.sender);\n            uint256 approvalsRequired = totalPaidAirlines / 2;\n            if (approvalCount >= approvalsRequired) approved = true;\n        }\n\n        if (approved) {\n            flightSuretyData.updateAirlineState(airline, 1);\n            emit AirlineRegistered(airline);\n        }\n    }\n\n    function payAirlineDues() external payable onlyRegisteredAirlines \n    {\n        require(msg.value == 10 ether, \"Payment of 10 ether is required\");\n\n        flightSuretyDataContractAddress.transfer(msg.value);\n        flightSuretyData.updateAirlineState(msg.sender, 2);\n\n        emit AirlinePaid(msg.sender);\n    }    \n\n    /* PASSENGERS */\n\n    uint public constant MAX_INSURANCE_AMOUNT = 1 ether;\n    uint public constant INSURANCE_DIVIDER = 2;\n\n\n\n    function purchaseInsurance(address airline, string calldata flight, uint256 timestamp)\n    external payable\n    {\n        bytes32 flightKey = getFlightKey(airline, flight, timestamp);\n\n        require(bytes(flights[flightKey].flight).length > 0, \"Flight does not exist\");\n\n        require(msg.value <= MAX_INSURANCE_AMOUNT, \"Passengers can buy a maximum of 1 ether for insurance\");\n\n        flightSuretyDataContractAddress.transfer(msg.value);\n\n        uint256 payoutAmount = msg.value + ( msg.value / INSURANCE_DIVIDER);\n\n        flightSuretyData.createInsurance(msg.sender, flight, msg.value, payoutAmount);\n\n        emit PassengerInsuranceBought(msg.sender, flightKey);\n    }\n\n    function getInsurance(string calldata flight) external view \n    returns (uint256 amount, uint256 payoutAmount, uint256 state) \n    {\n        return flightSuretyData.getInsurance(msg.sender, flight);\n    }\n\n    function claimInsurance(address airline, string calldata flight, uint256 timestamp) external \n    {\n        bytes32 flightKey = getFlightKey(airline, flight, timestamp);\n        require(flights[flightKey].statusCode == STATUS_CODE_LATE_AIRLINE, \"Flight was not delayed\");\n\n        flightSuretyData.claimInsurance(msg.sender, flight);\n    }\n\n    function getBalance() external view returns (uint256 balance) \n    {\n        balance = flightSuretyData.getPassengerBalance(msg.sender);\n    }\n\n    function withdrawBalance() external \n    {\n        flightSuretyData.payPassenger(msg.sender);\n    }\n\n\n    /* FLIGHTS */\n\n    function getFlightsCount() external view returns (uint256 count)\n    {\n        return flightsKeyList.length;\n    }\n\n    function getFlight(uint256 index) external view \n    returns (address airline, string memory flight, uint256 timestamp, uint8 statusCode)\n    {\n        airline = flights[ flightsKeyList[index] ].airline;\n        flight = flights[ flightsKeyList[index] ].flight;\n        timestamp = flights[ flightsKeyList[index] ].timestamp;\n        statusCode = flights[ flightsKeyList[index] ].statusCode;\n    }\n\n    function registerFlight(uint8 status, string calldata flight)\n    external onlyPaidAirlines\n    {\n        bytes32 flightKey = getFlightKey(msg.sender, flight, now);\n\n        flights[flightKey] = Flight(status, now, msg.sender, flight);\n        flightsKeyList.push(flightKey);\n    }\n\n    function processFlightStatus(\n        address airline, string memory flight, uint256 timestamp, uint8 statusCode\n    )\n    private\n    {\n        bytes32 flightKey = getFlightKey(airline, flight, timestamp);\n        flights[flightKey].statusCode = statusCode;\n\n        emit FlightStatusProcessed(airline, flight, statusCode);\n    }\n\n    function fetchFlightStatus(address airline, string calldata flight, uint256 timestamp)\n    external\n    {\n        uint8 index = getRandomIndex(msg.sender);\n\n        bytes32 key = keccak256(abi.encodePacked(index, airline, flight, timestamp));\n\n        oracleResponses[key] = ResponseInfo({\n            requester : msg.sender,\n            isOpen : true\n            });\n\n        emit OracleRequest(index, airline, flight, timestamp);\n    }\n\n\n    /** ORACLES */\n\n    // Account that requested status\n    // If open, oracle responses are accepted\n    // Mapping key is the status code reported\n    // Key = hash(index, flight, timestamp)\n\n    function registerOracle() external payable\n    {\n        require(msg.value >= REGISTRATION_FEE, \"Registration fee is required\");\n        \n        uint8[3] memory indexes = generateIndexes(msg.sender); \n\n        oracles[msg.sender] = Oracle({ isRegistered : true, indexes : indexes });\n\n        emit OracleIsRegistered(indexes, \"Oracle has been registered.\");\n    }\n\n    function getMyIndexes() view external returns (uint8[3] memory)\n    {\n        require(oracles[msg.sender].isRegistered, \"Not registered as an oracle\");\n\n        return oracles[msg.sender].indexes;\n    }\n\n    function submitOracleResponse (\n        uint8 index, address airline, string calldata flight, uint256 timestamp, uint8 statusCode\n    ) external\n    {\n        require(\n            (oracles[msg.sender].indexes[0] == index) ||\n            (oracles[msg.sender].indexes[1] == index) ||\n            (oracles[msg.sender].indexes[2] == index),\n                \"Index does not match oracle request\"\n        );\n\n        bytes32 key = keccak256(abi.encodePacked(index, airline, flight, timestamp));\n        require(\n            oracleResponses[key].isOpen, \n            \"Flight or timestamp do not match oracle request\"\n        );\n\n        oracleResponses[key].responses[statusCode].push(msg.sender);\n\n        emit OracleReport(airline, flight, timestamp, statusCode);\n\n        if (oracleResponses[key].responses[statusCode].length >= MIN_RESPONSES) {\n\n            emit FlightStatusInfo(airline, flight, timestamp, statusCode);\n\n            processFlightStatus(airline, flight, timestamp, statusCode);\n        }\n    }\n\n    function getFlightKey(address airline, string memory flight, uint256 timestamp)\n    pure internal returns (bytes32)\n    {\n        return keccak256(abi.encodePacked(airline, flight, timestamp));\n    }\n\n    function generateIndexes(address account) internal returns (uint8[3] memory)\n    {\n        uint8[3] memory indexes;\n        indexes[0] = getRandomIndex(account);\n\n        indexes[1] = indexes[0];\n        while (indexes[1] == indexes[0]) {\n            indexes[1] = getRandomIndex(account);\n        }\n\n        indexes[2] = indexes[1];\n        while ((indexes[2] == indexes[0]) || (indexes[2] == indexes[1])) {\n            indexes[2] = getRandomIndex(account);\n        }\n\n        return indexes;\n    }\n\n    function getRandomIndex(address account) internal returns (uint8)\n    {\n        uint8 maxValue = 10;\n\n        uint8 random = uint8(\n            uint256(\n                keccak256(\n                    abi.encodePacked(\n                        blockhash(block.number - nonce++), account\n                    )\n                )\n            ) % maxValue\n        );\n\n        if (nonce > 250) {\n            nonce = 0;\n        }\n\n        return random;\n    }\n\n}   \n\n\n/** DATA CONTRACT INTERFACE ************************************************************/\n\ncontract FlightSuretyData {\n\n    function getAirlineState(address airline) external returns(uint);\n\n    function createAirline(address airlineAddress, uint8 state, string  calldata name) \n    external;\n\n    function updateAirlineState(address airlineAddress, uint8 state) external;\n\n    function getTotalPaidAirlines() external returns (uint);\n\n    function approveAirlineRegistration(address airline, address approver) external \n    returns (uint8);\n\n    function createInsurance(\n        address passenger, string  calldata flight, uint256 amount, uint256 payoutAmount\n    ) external;\n\n    function getInsurance(address passenger, string  calldata flight) external view\n    returns (uint256 amount, uint256 payoutAmount, uint256 state);\n\n    function claimInsurance(address passenger, string  calldata flight) external;\n\n    function getPassengerBalance(address passenger) external pure returns (uint256);\n\n    function payPassenger(address passenger) external;\n\n}\n",
  "sourcePath": "/app/contracts/FlightSuretyApp.sol",
  "compiler": {
    "name": "solc",
    "version": "0.5.1+commit.c8a2cb62.Emscripten.clang"
  },
  "schemaVersion": "3.0.23",
  "updatedAt": "2020-04-14T12:09:26.947Z",
  "networkType": "ethereum",
  "devdoc": {
    "methods": {}
  },
  "userdoc": {
    "methods": {
      "registerOracle()": {
        "notice": "ORACLES "
      }
    }
  }
}