{
  "contractName": "FlightSuretyData",
  "abi": [
    {
      "inputs": [],
      "payable": false,
      "stateMutability": "nonpayable",
      "type": "constructor"
    },
    {
      "payable": true,
      "stateMutability": "payable",
      "type": "fallback"
    },
    {
      "constant": true,
      "inputs": [],
      "name": "isOperational",
      "outputs": [
        {
          "name": "",
          "type": "bool"
        }
      ],
      "payable": false,
      "stateMutability": "view",
      "type": "function"
    },
    {
      "constant": false,
      "inputs": [
        {
          "name": "mode",
          "type": "bool"
        }
      ],
      "name": "setOperatingStatus",
      "outputs": [],
      "payable": false,
      "stateMutability": "nonpayable",
      "type": "function"
    },
    {
      "constant": false,
      "inputs": [
        {
          "name": "caller",
          "type": "address"
        },
        {
          "name": "status",
          "type": "bool"
        }
      ],
      "name": "setCallerAuthorizationStatus",
      "outputs": [
        {
          "name": "",
          "type": "bool"
        }
      ],
      "payable": false,
      "stateMutability": "nonpayable",
      "type": "function"
    },
    {
      "constant": true,
      "inputs": [
        {
          "name": "caller",
          "type": "address"
        }
      ],
      "name": "getCallerAuthorizationStatus",
      "outputs": [
        {
          "name": "",
          "type": "bool"
        }
      ],
      "payable": false,
      "stateMutability": "view",
      "type": "function"
    },
    {
      "constant": true,
      "inputs": [
        {
          "name": "airline",
          "type": "address"
        }
      ],
      "name": "getAirlineState",
      "outputs": [
        {
          "name": "",
          "type": "uint8"
        }
      ],
      "payable": false,
      "stateMutability": "view",
      "type": "function"
    },
    {
      "constant": false,
      "inputs": [
        {
          "name": "airlineAddress",
          "type": "address"
        },
        {
          "name": "state",
          "type": "uint8"
        },
        {
          "name": "name",
          "type": "string"
        }
      ],
      "name": "createAirline",
      "outputs": [],
      "payable": false,
      "stateMutability": "nonpayable",
      "type": "function"
    },
    {
      "constant": false,
      "inputs": [
        {
          "name": "airlineAddress",
          "type": "address"
        },
        {
          "name": "state",
          "type": "uint8"
        }
      ],
      "name": "updateAirlineState",
      "outputs": [],
      "payable": false,
      "stateMutability": "nonpayable",
      "type": "function"
    },
    {
      "constant": true,
      "inputs": [],
      "name": "getTotalPaidAirlines",
      "outputs": [
        {
          "name": "",
          "type": "uint256"
        }
      ],
      "payable": false,
      "stateMutability": "view",
      "type": "function"
    },
    {
      "constant": false,
      "inputs": [
        {
          "name": "airline",
          "type": "address"
        },
        {
          "name": "approver",
          "type": "address"
        }
      ],
      "name": "approveAirlineRegistration",
      "outputs": [
        {
          "name": "",
          "type": "uint8"
        }
      ],
      "payable": false,
      "stateMutability": "nonpayable",
      "type": "function"
    },
    {
      "constant": true,
      "inputs": [
        {
          "name": "passenger",
          "type": "address"
        },
        {
          "name": "flight",
          "type": "string"
        }
      ],
      "name": "getInsurance",
      "outputs": [
        {
          "name": "amount",
          "type": "uint256"
        },
        {
          "name": "payoutAmount",
          "type": "uint256"
        },
        {
          "name": "state",
          "type": "uint8"
        }
      ],
      "payable": false,
      "stateMutability": "view",
      "type": "function"
    },
    {
      "constant": false,
      "inputs": [
        {
          "name": "passenger",
          "type": "address"
        },
        {
          "name": "flight",
          "type": "string"
        },
        {
          "name": "amount",
          "type": "uint256"
        },
        {
          "name": "payoutAmount",
          "type": "uint256"
        }
      ],
      "name": "createInsurance",
      "outputs": [],
      "payable": false,
      "stateMutability": "nonpayable",
      "type": "function"
    },
    {
      "constant": false,
      "inputs": [
        {
          "name": "passenger",
          "type": "address"
        },
        {
          "name": "flight",
          "type": "string"
        }
      ],
      "name": "claimInsurance",
      "outputs": [],
      "payable": false,
      "stateMutability": "nonpayable",
      "type": "function"
    },
    {
      "constant": true,
      "inputs": [
        {
          "name": "passenger",
          "type": "address"
        }
      ],
      "name": "getPassengerBalance",
      "outputs": [
        {
          "name": "",
          "type": "uint256"
        }
      ],
      "payable": false,
      "stateMutability": "view",
      "type": "function"
    },
    {
      "constant": false,
      "inputs": [
        {
          "name": "passenger",
          "type": "address"
        }
      ],
      "name": "payPassenger",
      "outputs": [],
      "payable": false,
      "stateMutability": "nonpayable",
      "type": "function"
    }
  ],
  "bytecode": "0x60806040526001600060146101000a81548160ff021916908315150217905550600180553480156200003057600080fd5b50336000806101000a81548173ffffffffffffffffffffffffffffffffffffffff021916908373ffffffffffffffffffffffffffffffffffffffff1602179055506080604051908101604052806000809054906101000a900473ffffffffffffffffffffffffffffffffffffffff1673ffffffffffffffffffffffffffffffffffffffff168152602001600280811115620000c757fe5b81526020016040805190810160405280600d81526020017f4669727374204169726c696e65000000000000000000000000000000000000008152508152602001600060ff16815250600360008060009054906101000a900473ffffffffffffffffffffffffffffffffffffffff1673ffffffffffffffffffffffffffffffffffffffff1673ffffffffffffffffffffffffffffffffffffffff16815260200190815260200160002060008201518160000160006101000a81548173ffffffffffffffffffffffffffffffffffffffff021916908373ffffffffffffffffffffffffffffffffffffffff16021790555060208201518160000160146101000a81548160ff02191690836002811115620001db57fe5b02179055506040820151816001019080519060200190620001fe92919062000229565b5060608201518160030160006101000a81548160ff021916908360ff160217905550905050620002d8565b828054600181600116156101000203166002900490600052602060002090601f016020900481019282601f106200026c57805160ff19168380011785556200029d565b828001600101855582156200029d579182015b828111156200029c5782518255916020019190600101906200027f565b5b509050620002ac9190620002b0565b5090565b620002d591905b80821115620002d1576000816000905550600101620002b7565b5090565b90565b61237a80620002e86000396000f3fe6080604052600436106100ca576000357c010000000000000000000000000000000000000000000000000000000090048063014299b2146100cc578063110466ed146101865780631537b7e0146101c35780633491daf014610236578063385de787146102dc578063464baab914610341578063b9697883146103f4578063c0453e36146104ca578063cd441c4d14610555578063cd905dff146105b3578063d3c2963d146105e2578063d457334c1461064b578063dd177bb9146106c0578063f8ff28cb146106eb575b005b3480156100d857600080fd5b50610184600480360360808110156100ef57600080fd5b81019080803573ffffffffffffffffffffffffffffffffffffffff1690602001909291908035906020019064010000000081111561012c57600080fd5b82018360208201111561013e57600080fd5b8035906020019184600183028401116401000000008311171561016057600080fd5b9091929391929390803590602001909291908035906020019092919050505061073c565b005b34801561019257600080fd5b506101c1600480360360208110156101a957600080fd5b81019080803515159060200190929190505050610a6d565b005b3480156101cf57600080fd5b50610212600480360360208110156101e657600080fd5b81019080803573ffffffffffffffffffffffffffffffffffffffff169060200190929190505050610b4e565b6040518082600281111561022257fe5b60ff16815260200191505060405180910390f35b34801561024257600080fd5b506102da6004803603604081101561025957600080fd5b81019080803573ffffffffffffffffffffffffffffffffffffffff1690602001909291908035906020019064010000000081111561029657600080fd5b8201836020820111156102a857600080fd5b803590602001918460018302840111640100000000831117156102ca57600080fd5b9091929391929390505050610cbf565b005b3480156102e857600080fd5b5061032b600480360360208110156102ff57600080fd5b81019080803573ffffffffffffffffffffffffffffffffffffffff169060200190929190505050611053565b6040518082815260200191505060405180910390f35b34801561034d57600080fd5b506103f26004803603606081101561036457600080fd5b81019080803573ffffffffffffffffffffffffffffffffffffffff169060200190929190803560ff169060200190929190803590602001906401000000008111156103ae57600080fd5b8201836020820111156103c057600080fd5b803590602001918460018302840111640100000000831117156103e257600080fd5b90919293919293905050506111b4565b005b34801561040057600080fd5b506104986004803603604081101561041757600080fd5b81019080803573ffffffffffffffffffffffffffffffffffffffff1690602001909291908035906020019064010000000081111561045457600080fd5b82018360208201111561046657600080fd5b8035906020019184600183028401116401000000008311171561048857600080fd5b909192939192939050505061145b565b604051808481526020018381526020018260018111156104b457fe5b60ff168152602001935050505060405180910390f35b3480156104d657600080fd5b50610539600480360360408110156104ed57600080fd5b81019080803573ffffffffffffffffffffffffffffffffffffffff169060200190929190803573ffffffffffffffffffffffffffffffffffffffff1690602001909291905050506116cc565b604051808260ff1660ff16815260200191505060405180910390f35b34801561056157600080fd5b506105b16004803603604081101561057857600080fd5b81019080803573ffffffffffffffffffffffffffffffffffffffff169060200190929190803560ff169060200190929190505050611a70565b005b3480156105bf57600080fd5b506105c8611c1c565b604051808215151515815260200191505060405180910390f35b3480156105ee57600080fd5b506106316004803603602081101561060557600080fd5b81019080803573ffffffffffffffffffffffffffffffffffffffff169060200190929190505050611c32565b604051808215151515815260200191505060405180910390f35b34801561065757600080fd5b506106a66004803603604081101561066e57600080fd5b81019080803573ffffffffffffffffffffffffffffffffffffffff169060200190929190803515159060200190929190505050611d4c565b604051808215151515815260200191505060405180910390f35b3480156106cc57600080fd5b506106d5611ebe565b6040518082815260200191505060405180910390f35b3480156106f757600080fd5b5061073a6004803603602081101561070e57600080fd5b81019080803573ffffffffffffffffffffffffffffffffffffffff169060200190929190505050611fe0565b005b600260003373ffffffffffffffffffffffffffffffffffffffff1673ffffffffffffffffffffffffffffffffffffffff16815260200190815260200160002060009054906101000a900460ff16806107e057506000809054906101000a900473ffffffffffffffffffffffffffffffffffffffff1673ffffffffffffffffffffffffffffffffffffffff163373ffffffffffffffffffffffffffffffffffffffff16145b1515610854576040517f08c379a00000000000000000000000000000000000000000000000000000000081526004018080602001828103825260188152602001807f43616c6c6572206973206e6f7420617574686f7269736564000000000000000081525060200191505060405180910390fd5b81600460008773ffffffffffffffffffffffffffffffffffffffff1673ffffffffffffffffffffffffffffffffffffffff168152602001908152602001600020858560405180838380828437808301925050509250505090815260200160405180910390206001015414151515610933576040517f08c379a00000000000000000000000000000000000000000000000000000000081526004018080602001828103825260188152602001807f496e737572616e636520616c726561647920657869737473000000000000000081525060200191505060405180910390fd5b60806040519081016040528085858080601f016020809104026020016040519081016040528093929190818152602001838380828437600081840152601f19601f820116905080830192505050505050508152602001838152602001828152602001600060018111156109a257fe5b815250600460008773ffffffffffffffffffffffffffffffffffffffff1673ffffffffffffffffffffffffffffffffffffffff168152602001908152602001600020858560405180838380828437808301925050509250505090815260200160405180910390206000820151816000019080519060200190610a259291906122a9565b50602082015181600101556040820151816002015560608201518160030160006101000a81548160ff02191690836001811115610a5e57fe5b02179055509050505050505050565b6000809054906101000a900473ffffffffffffffffffffffffffffffffffffffff1673ffffffffffffffffffffffffffffffffffffffff163373ffffffffffffffffffffffffffffffffffffffff16141515610b31576040517f08c379a000000000000000000000000000000000000000000000000000000000815260040180806020018281038252601c8152602001807f43616c6c6572206973206e6f7420636f6e7472616374206f776e65720000000081525060200191505060405180910390fd5b80600060146101000a81548160ff02191690831515021790555050565b6000600260003373ffffffffffffffffffffffffffffffffffffffff1673ffffffffffffffffffffffffffffffffffffffff16815260200190815260200160002060009054906101000a900460ff1680610bf457506000809054906101000a900473ffffffffffffffffffffffffffffffffffffffff1673ffffffffffffffffffffffffffffffffffffffff163373ffffffffffffffffffffffffffffffffffffffff16145b1515610c68576040517f08c379a00000000000000000000000000000000000000000000000000000000081526004018080602001828103825260188152602001807f43616c6c6572206973206e6f7420617574686f7269736564000000000000000081525060200191505060405180910390fd5b600360008373ffffffffffffffffffffffffffffffffffffffff1673ffffffffffffffffffffffffffffffffffffffff16815260200190815260200160002060000160149054906101000a900460ff169050919050565b600260003373ffffffffffffffffffffffffffffffffffffffff1673ffffffffffffffffffffffffffffffffffffffff16815260200190815260200160002060009054906101000a900460ff1680610d6357506000809054906101000a900473ffffffffffffffffffffffffffffffffffffffff1673ffffffffffffffffffffffffffffffffffffffff163373ffffffffffffffffffffffffffffffffffffffff16145b1515610dd7576040517f08c379a00000000000000000000000000000000000000000000000000000000081526004018080602001828103825260188152602001807f43616c6c6572206973206e6f7420617574686f7269736564000000000000000081525060200191505060405180910390fd5b60006001811115610de457fe5b600460008573ffffffffffffffffffffffffffffffffffffffff1673ffffffffffffffffffffffffffffffffffffffff1681526020019081526020016000208383604051808383808284378083019250505092505050908152602001604051809103902060030160009054906101000a900460ff166001811115610e6457fe5b141515610ed9576040517f08c379a00000000000000000000000000000000000000000000000000000000081526004018080602001828103825260198152602001807f496e737572616e636520616c726561647920636c61696d65640000000000000081525060200191505060405180910390fd5b6001600460008573ffffffffffffffffffffffffffffffffffffffff1673ffffffffffffffffffffffffffffffffffffffff1681526020019081526020016000208383604051808383808284378083019250505092505050908152602001604051809103902060030160006101000a81548160ff02191690836001811115610f5d57fe5b0217905550600460008473ffffffffffffffffffffffffffffffffffffffff1673ffffffffffffffffffffffffffffffffffffffff1681526020019081526020016000208282604051808383808284378083019250505092505050908152602001604051809103902060020154600560008573ffffffffffffffffffffffffffffffffffffffff1673ffffffffffffffffffffffffffffffffffffffff1681526020019081526020016000205401600560008573ffffffffffffffffffffffffffffffffffffffff1673ffffffffffffffffffffffffffffffffffffffff16815260200190815260200160002081905550505050565b6000600260003373ffffffffffffffffffffffffffffffffffffffff1673ffffffffffffffffffffffffffffffffffffffff16815260200190815260200160002060009054906101000a900460ff16806110f957506000809054906101000a900473ffffffffffffffffffffffffffffffffffffffff1673ffffffffffffffffffffffffffffffffffffffff163373ffffffffffffffffffffffffffffffffffffffff16145b151561116d576040517f08c379a00000000000000000000000000000000000000000000000000000000081526004018080602001828103825260188152602001807f43616c6c6572206973206e6f7420617574686f7269736564000000000000000081525060200191505060405180910390fd5b600560008373ffffffffffffffffffffffffffffffffffffffff1673ffffffffffffffffffffffffffffffffffffffff168152602001908152602001600020549050919050565b600260003373ffffffffffffffffffffffffffffffffffffffff1673ffffffffffffffffffffffffffffffffffffffff16815260200190815260200160002060009054906101000a900460ff168061125857506000809054906101000a900473ffffffffffffffffffffffffffffffffffffffff1673ffffffffffffffffffffffffffffffffffffffff163373ffffffffffffffffffffffffffffffffffffffff16145b15156112cc576040517f08c379a00000000000000000000000000000000000000000000000000000000081526004018080602001828103825260188152602001807f43616c6c6572206973206e6f7420617574686f7269736564000000000000000081525060200191505060405180910390fd5b6080604051908101604052808573ffffffffffffffffffffffffffffffffffffffff1681526020018460ff16600281111561130357fe5b600281111561130e57fe5b815260200183838080601f016020809104026020016040519081016040528093929190818152602001838380828437600081840152601f19601f820116905080830192505050505050508152602001600060ff16815250600360008673ffffffffffffffffffffffffffffffffffffffff1673ffffffffffffffffffffffffffffffffffffffff16815260200190815260200160002060008201518160000160006101000a81548173ffffffffffffffffffffffffffffffffffffffff021916908373ffffffffffffffffffffffffffffffffffffffff16021790555060208201518160000160146101000a81548160ff0219169083600281111561140f57fe5b021790555060408201518160010190805190602001906114309291906122a9565b5060608201518160030160006101000a81548160ff021916908360ff16021790555090505050505050565b6000806000600260003373ffffffffffffffffffffffffffffffffffffffff1673ffffffffffffffffffffffffffffffffffffffff16815260200190815260200160002060009054906101000a900460ff168061150457506000809054906101000a900473ffffffffffffffffffffffffffffffffffffffff1673ffffffffffffffffffffffffffffffffffffffff163373ffffffffffffffffffffffffffffffffffffffff16145b1515611578576040517f08c379a00000000000000000000000000000000000000000000000000000000081526004018080602001828103825260188152602001807f43616c6c6572206973206e6f7420617574686f7269736564000000000000000081525060200191505060405180910390fd5b600460008773ffffffffffffffffffffffffffffffffffffffff1673ffffffffffffffffffffffffffffffffffffffff16815260200190815260200160002085856040518083838082843780830192505050925050509081526020016040518091039020600101549250600460008773ffffffffffffffffffffffffffffffffffffffff1673ffffffffffffffffffffffffffffffffffffffff16815260200190815260200160002085856040518083838082843780830192505050925050509081526020016040518091039020600201549150600460008773ffffffffffffffffffffffffffffffffffffffff1673ffffffffffffffffffffffffffffffffffffffff1681526020019081526020016000208585604051808383808284378083019250505092505050908152602001604051809103902060030160009054906101000a900460ff16905093509350939050565b6000600260003373ffffffffffffffffffffffffffffffffffffffff1673ffffffffffffffffffffffffffffffffffffffff16815260200190815260200160002060009054906101000a900460ff168061177257506000809054906101000a900473ffffffffffffffffffffffffffffffffffffffff1673ffffffffffffffffffffffffffffffffffffffff163373ffffffffffffffffffffffffffffffffffffffff16145b15156117e6576040517f08c379a00000000000000000000000000000000000000000000000000000000081526004018080602001828103825260188152602001807f43616c6c6572206973206e6f7420617574686f7269736564000000000000000081525060200191505060405180910390fd5b600360008473ffffffffffffffffffffffffffffffffffffffff1673ffffffffffffffffffffffffffffffffffffffff16815260200190815260200160002060020160008373ffffffffffffffffffffffffffffffffffffffff1673ffffffffffffffffffffffffffffffffffffffff16815260200190815260200160002060009054906101000a900460ff1615151561190e576040517f08c379a00000000000000000000000000000000000000000000000000000000081526004018080602001828103825260218152602001807f43616c6c65722068617320616c726561647920676976656e20617070726f766181526020017f6c0000000000000000000000000000000000000000000000000000000000000081525060400191505060405180910390fd5b6001600360008573ffffffffffffffffffffffffffffffffffffffff1673ffffffffffffffffffffffffffffffffffffffff16815260200190815260200160002060020160008473ffffffffffffffffffffffffffffffffffffffff1673ffffffffffffffffffffffffffffffffffffffff16815260200190815260200160002060006101000a81548160ff021916908315150217905550600360008473ffffffffffffffffffffffffffffffffffffffff1673ffffffffffffffffffffffffffffffffffffffff168152602001908152602001600020600301600081819054906101000a900460ff168092919060010191906101000a81548160ff021916908360ff16021790555050600360008473ffffffffffffffffffffffffffffffffffffffff1673ffffffffffffffffffffffffffffffffffffffff16815260200190815260200160002060030160009054906101000a900460ff16905092915050565b600260003373ffffffffffffffffffffffffffffffffffffffff1673ffffffffffffffffffffffffffffffffffffffff16815260200190815260200160002060009054906101000a900460ff1680611b1457506000809054906101000a900473ffffffffffffffffffffffffffffffffffffffff1673ffffffffffffffffffffffffffffffffffffffff163373ffffffffffffffffffffffffffffffffffffffff16145b1515611b88576040517f08c379a00000000000000000000000000000000000000000000000000000000081526004018080602001828103825260188152602001807f43616c6c6572206973206e6f7420617574686f7269736564000000000000000081525060200191505060405180910390fd5b8060ff166002811115611b9757fe5b600360008473ffffffffffffffffffffffffffffffffffffffff1673ffffffffffffffffffffffffffffffffffffffff16815260200190815260200160002060000160146101000a81548160ff02191690836002811115611bf457fe5b021790555060028160ff161415611c18576001600081548092919060010191905055505b5050565b60008060149054906101000a900460ff16905090565b60008060009054906101000a900473ffffffffffffffffffffffffffffffffffffffff1673ffffffffffffffffffffffffffffffffffffffff163373ffffffffffffffffffffffffffffffffffffffff16141515611cf8576040517f08c379a000000000000000000000000000000000000000000000000000000000815260040180806020018281038252601c8152602001807f43616c6c6572206973206e6f7420636f6e7472616374206f776e65720000000081525060200191505060405180910390fd5b600260008373ffffffffffffffffffffffffffffffffffffffff1673ffffffffffffffffffffffffffffffffffffffff16815260200190815260200160002060009054906101000a900460ff169050919050565b60008060009054906101000a900473ffffffffffffffffffffffffffffffffffffffff1673ffffffffffffffffffffffffffffffffffffffff163373ffffffffffffffffffffffffffffffffffffffff16141515611e12576040517f08c379a000000000000000000000000000000000000000000000000000000000815260040180806020018281038252601c8152602001807f43616c6c6572206973206e6f7420636f6e7472616374206f776e65720000000081525060200191505060405180910390fd5b81600260008573ffffffffffffffffffffffffffffffffffffffff1673ffffffffffffffffffffffffffffffffffffffff16815260200190815260200160002060006101000a81548160ff021916908315150217905550600260008473ffffffffffffffffffffffffffffffffffffffff1673ffffffffffffffffffffffffffffffffffffffff16815260200190815260200160002060009054906101000a900460ff16905092915050565b6000600260003373ffffffffffffffffffffffffffffffffffffffff1673ffffffffffffffffffffffffffffffffffffffff16815260200190815260200160002060009054906101000a900460ff1680611f6457506000809054906101000a900473ffffffffffffffffffffffffffffffffffffffff1673ffffffffffffffffffffffffffffffffffffffff163373ffffffffffffffffffffffffffffffffffffffff16145b1515611fd8576040517f08c379a00000000000000000000000000000000000000000000000000000000081526004018080602001828103825260188152602001807f43616c6c6572206973206e6f7420617574686f7269736564000000000000000081525060200191505060405180910390fd5b600154905090565b600260003373ffffffffffffffffffffffffffffffffffffffff1673ffffffffffffffffffffffffffffffffffffffff16815260200190815260200160002060009054906101000a900460ff168061208457506000809054906101000a900473ffffffffffffffffffffffffffffffffffffffff1673ffffffffffffffffffffffffffffffffffffffff163373ffffffffffffffffffffffffffffffffffffffff16145b15156120f8576040517f08c379a00000000000000000000000000000000000000000000000000000000081526004018080602001828103825260188152602001807f43616c6c6572206973206e6f7420617574686f7269736564000000000000000081525060200191505060405180910390fd5b6000600560008373ffffffffffffffffffffffffffffffffffffffff1673ffffffffffffffffffffffffffffffffffffffff168152602001908152602001600020541115156121d5576040517f08c379a00000000000000000000000000000000000000000000000000000000081526004018080602001828103825260358152602001807f50617373656e67657220646f65736e2774206861766520656e6f75676820746f81526020017f207769746864726177207468617420616d6f756e74000000000000000000000081525060400191505060405180910390fd5b6000600560008373ffffffffffffffffffffffffffffffffffffffff1673ffffffffffffffffffffffffffffffffffffffff1681526020019081526020016000205490506000600560008473ffffffffffffffffffffffffffffffffffffffff1673ffffffffffffffffffffffffffffffffffffffff168152602001908152602001600020819055508173ffffffffffffffffffffffffffffffffffffffff166108fc829081150290604051600060405180830381858888f193505050501580156122a4573d6000803e3d6000fd5b505050565b828054600181600116156101000203166002900490600052602060002090601f016020900481019282601f106122ea57805160ff1916838001178555612318565b82800160010185558215612318579182015b828111156123175782518255916020019190600101906122fc565b5b5090506123259190612329565b5090565b61234b91905b8082111561234757600081600090555060010161232f565b5090565b9056fea165627a7a723058200986e3c6c9aa006aaa08d42ea64e3f6d8e3d37e2dc0220d58958027a93dfd8dd0029",
  "source": "pragma solidity ^0.5.0;\n\n// import \"@openzeppelin/contracts/lifecycle/Pausable.sol\";\n// import \"@openzeppelin/contracts/ownership/Ownable.sol\";\nimport \"@openzeppelin/contracts/math/SafeMath.sol\";\n\n\n/** FlightSurety Data Contract *********************************************************/\n\ncontract FlightSuretyData { // is Ownable, Pausable\n    using SafeMath for uint256;\n\n    /** DATA VARIABLES *****************************************************************/\n\n    address private contractOwner;\n    bool private operational = true;\n    uint256 internal totalPaidAirlines = 1;\n\n    enum AirlineState {\n        Applied,\n        Registered,\n        Paid\n    }\n\n    enum InsuranceState {\n        Bought,\n        Claimed\n    }\n\n    struct Airline {\n        address airlineAddress;\n        AirlineState state;\n        string name;\n        mapping(address => bool) approvals;\n        uint8 approvalCount;\n    }\n\n    struct Insurance {\n        string flight;\n        uint256 amount;\n        uint256 payoutAmount;\n        InsuranceState state;\n    }\n\n    mapping(address => bool) private authorizedCallers;\n    mapping(address => Airline) internal airlines;\n    mapping(address => mapping(string => Insurance)) private passengerInsurances;\n    mapping(address => uint256) private passengerBalances;\n\n\n    /** CONSTRUCTOR ********************************************************************/\n\n    constructor() public\n    {\n        contractOwner = msg.sender;\n\n        airlines[contractOwner] = Airline(\n            contractOwner, AirlineState.Paid, \"First Airline\", 0\n        );\n        totalPaidAirlines;\n    }\n\n\n    /* FUNCTION MODIFIERS **************************************************************/\n\n    modifier requireIsOperational()\n    {\n        require(operational, \"Contract is currently not operational\");\n        _;\n    }\n\n    modifier requireContractOwner()\n    {\n        require(msg.sender == contractOwner, \"Caller is not contract owner\");\n        _;\n    }\n\n    modifier requireCallerAuthorized()\n    {\n        require(authorizedCallers[msg.sender] || (msg.sender == contractOwner), \"Caller is not authorised\");\n        _;\n    }\n\n\n    /* UTILITY FUNCTIONS ***************************************************************/\n\n    function() external payable {}\n\n    function isOperational()\n    public view returns (bool)\n    {\n        return operational;\n    }\n\n    function setOperatingStatus(bool mode) external requireContractOwner\n    {\n        operational = mode;\n    }\n\n    function setCallerAuthorizationStatus(address caller, bool status)\n    external requireContractOwner returns (bool)\n    {\n        authorizedCallers[caller] = status;\n        return authorizedCallers[caller];\n    }\n\n    function getCallerAuthorizationStatus(address caller)\n    public view requireContractOwner returns (bool)\n    {\n        return authorizedCallers[caller];\n    }\n\n\n\n    /* SMART CONTRACT FUNCTIONS ********************************************************/\n\n\n    /* AIRLINES */\n\n\n    function getAirlineState(address airline) external view requireCallerAuthorized\n    returns (AirlineState)\n    {\n        return airlines[airline].state;\n    }\n\n    function createAirline(address airlineAddress, uint8 state, string calldata name)\n    external requireCallerAuthorized\n    {\n        airlines[airlineAddress] = Airline(airlineAddress, AirlineState(state), name, 0);\n    }\n\n    function updateAirlineState(address airlineAddress, uint8 state)\n    external requireCallerAuthorized\n    {\n        airlines[airlineAddress].state = AirlineState(state);\n        if (state == 2) totalPaidAirlines++;\n    }\n\n    function getTotalPaidAirlines() external view requireCallerAuthorized \n    returns (uint256)\n    {\n        return totalPaidAirlines;\n    }\n\n    function approveAirlineRegistration(address airline, address approver)\n    external requireCallerAuthorized returns (uint8)\n    {\n        require(!airlines[airline].approvals[approver], \"Caller has already given approval\");\n\n        airlines[airline].approvals[approver] = true;\n        airlines[airline].approvalCount++;\n\n        return airlines[airline].approvalCount;\n    }\n\n\n\n    /* PASSENGERS */\n\n    function getInsurance(address passenger, string calldata flight)\n    external view requireCallerAuthorized\n    returns (uint256 amount, uint256 payoutAmount, InsuranceState state)\n    {\n        amount = passengerInsurances[passenger][flight].amount;\n        payoutAmount = passengerInsurances[passenger][flight].payoutAmount;\n        state = passengerInsurances[passenger][flight].state;\n    }\n\n    function createInsurance(\n        address passenger, string calldata flight, uint256 amount, uint256 payoutAmount\n    )\n    external requireCallerAuthorized\n    {\n        require(passengerInsurances[passenger][flight].amount != amount, \"Insurance already exists\");\n\n        passengerInsurances[passenger][flight] = Insurance(flight, amount, payoutAmount, InsuranceState.Bought);\n    }\n\n    function claimInsurance(address passenger, string calldata flight)\n    external requireCallerAuthorized\n    {\n        require(\n            passengerInsurances[passenger][flight].state == InsuranceState.Bought, \n            \"Insurance already claimed\"\n        );\n        passengerInsurances[passenger][flight].state = InsuranceState.Claimed;\n        passengerBalances[passenger] = passengerBalances[passenger] + \n            passengerInsurances[passenger][flight].payoutAmount;\n    }\n\n    function getPassengerBalance(address passenger) external view requireCallerAuthorized\n    returns (uint256)\n    {\n        return passengerBalances[passenger];\n    }\n\n    function payPassenger(address payable passenger) external requireCallerAuthorized\n    {\n        require(passengerBalances[passenger] > 0, \"Passenger doesn't have enough to withdraw that amount\");\n\n        uint256 prev = passengerBalances[passenger];\n\n        passengerBalances[passenger] = 0;\n\n        passenger.transfer(prev);\n    }\n\n\n}\n",
  "sourcePath": "/app/contracts/FlightSuretyData.sol",
  "compiler": {
    "name": "solc",
    "version": "0.5.1+commit.c8a2cb62.Emscripten.clang"
  },
  "schemaVersion": "3.0.23",
  "updatedAt": "2020-04-14T12:09:26.960Z",
  "networkType": "ethereum",
  "devdoc": {
    "methods": {}
  },
  "userdoc": {
    "methods": {
      "constructor": "CONSTRUCTOR *******************************************************************"
    },
    "notice": "FlightSurety Data Contract ********************************************************"
  }
}