{
  "contractName": "ExerciseC6CApp",
  "abi": [
    {
      "inputs": [
        {
          "internalType": "address",
          "name": "dataContract",
          "type": "address"
        }
      ],
      "payable": false,
      "stateMutability": "nonpayable",
      "type": "constructor"
    },
    {
      "constant": false,
      "inputs": [
        {
          "internalType": "string",
          "name": "id",
          "type": "string"
        },
        {
          "internalType": "uint256",
          "name": "amount",
          "type": "uint256"
        }
      ],
      "name": "addSale",
      "outputs": [],
      "payable": false,
      "stateMutability": "nonpayable",
      "type": "function"
    }
  ],
  "bytecode": "0x608060405234801561001057600080fd5b506040516104ea3803806104ea8339818101604052602081101561003357600080fd5b8101908080519060200190929190505050336000806101000a81548173ffffffffffffffffffffffffffffffffffffffff021916908373ffffffffffffffffffffffffffffffffffffffff16021790555080600160006101000a81548173ffffffffffffffffffffffffffffffffffffffff021916908373ffffffffffffffffffffffffffffffffffffffff16021790555050610415806100d56000396000f3fe608060405234801561001057600080fd5b506004361061002b5760003560e01c80635cd25e5314610030575b600080fd5b6100b16004803603604081101561004657600080fd5b810190808035906020019064010000000081111561006357600080fd5b82018360208201111561007557600080fd5b8035906020019184600183028401116401000000008311171561009757600080fd5b9091929391929390803590602001909291905050506100b3565b005b600160009054906101000a900473ffffffffffffffffffffffffffffffffffffffff1673ffffffffffffffffffffffffffffffffffffffff166356b35dd58484846100fd86610189565b6040518563ffffffff1660e01b815260040180806020018481526020018381526020018281038252868682818152602001925080828437600081840152601f19601f82011690508083019250505095505050505050600060405180830381600087803b15801561016c57600080fd5b505af1158015610180573d6000803e3d6000fd5b50505050505050565b600060648210156101c2576101bb60646101ad60058561022990919063ffffffff16565b6102af90919063ffffffff16565b9050610224565b6101f48210156101fa576101f360646101e560078561022990919063ffffffff16565b6102af90919063ffffffff16565b9050610224565b6102216064610213600a8561022990919063ffffffff16565b6102af90919063ffffffff16565b90505b919050565b60008083141561023c57600090506102a9565b600082840290508284828161024d57fe5b04146102a4576040517f08c379a00000000000000000000000000000000000000000000000000000000081526004018080602001828103825260218152602001806103c06021913960400191505060405180910390fd5b809150505b92915050565b60006102f183836040518060400160405280601a81526020017f536166654d6174683a206469766973696f6e206279207a65726f0000000000008152506102f9565b905092915050565b600080831182906103a5576040517f08c379a00000000000000000000000000000000000000000000000000000000081526004018080602001828103825283818151815260200191508051906020019080838360005b8381101561036a57808201518184015260208101905061034f565b50505050905090810190601f1680156103975780820380516001836020036101000a031916815260200191505b509250505060405180910390fd5b5060008385816103b157fe5b04905080915050939250505056fe536166654d6174683a206d756c7469706c69636174696f6e206f766572666c6f77a265627a7a723158204d386c608cdee5d469bbb41ee235b73c8f1922400b405dea52bb3689e478726464736f6c63430005100032",
  "source": "pragma solidity ^0.5;\n\n// It's important to avoid vulnerabilities due to numeric overflow bugs\n// OpenZeppelin's SafeMath library, when used correctly, protects agains such bugs\n// More info: https://www.nccgroup.trust/us/about-us/newsroom-and-events/blog/2018/november/smart-contract-insecurity-bad-arithmetic/\n\nimport \"../../node_modules/@openzeppelin/contracts/math/SafeMath.sol\";\n\n\ncontract ExerciseC6CApp {\n    using SafeMath for uint256; // Allow SafeMath functions to be called for all uint256 types (similar to \"prototype\" in Javascript)\n\n\n    address private contractOwner;              // Account used to deploy contract\n    ExerciseC6C exerciseC6C;\n\n    modifier requireContractOwner()\n    {\n        require(msg.sender == contractOwner, \"Caller is not contract owner\");\n        _;\n    }\n    \n    constructor\n                                (\n                                    address dataContract\n                                ) \n                                public \n    {\n        contractOwner = msg.sender;\n        exerciseC6C = ExerciseC6C(dataContract);\n    }\n\n\n    function calculateBonus\n                            (\n                                uint256 sales\n                            )\n                            internal\n                            pure\n                            returns(uint256)\n    {\n        if (sales < 100) {\n            return sales.mul(5).div(100);\n        }\n        else if (sales < 500) {\n            return sales.mul(7).div(100);\n        }\n        else {\n            return sales.mul(10).div(100);\n        }\n    }\n\n    function addSale\n                                (\n                                    string calldata id,\n                                    uint256 amount\n                                )\n                                external\n    {\n        exerciseC6C.updateEmployee(\n                        id,\n                        amount,\n                        calculateBonus(amount)\n        );\n    }\n\n\n}\n\ncontract ExerciseC6C {\n    function updateEmployee(string calldata id, uint256 sales, uint256 bonus) external;\n}\n",
  "sourcePath": "/app/contracts/ExerciseC6C/ExerciseC6CApp.sol",
  "compiler": {
    "name": "solc",
    "version": "0.5.16+commit.9c3226ce.Emscripten.clang"
  },
  "schemaVersion": "3.0.21",
  "updatedAt": "2020-01-24T23:10:14.941Z",
  "devdoc": {
    "methods": {}
  },
  "userdoc": {
    "methods": {}
  }
}